:0400000019EF00F004
:060008007C829FED05F073
:100018007C80E0CF3DF0B0B802D0AAA402D0B0985E
:0E002800AA943DC0E0FF7C90100087EF0CF022
:10010000007D0CB59DCCD9F90DFDDD00E9EC0DF0BD
:1001100032EC0EF00DEC0EF01BEC0EF027EC0EF0B6
:10012000FCEC0DF049EC0AF0060E3C6E280E94EC47
:1001300005F0426A436A090E53EC0AF0E80E3E6E7F
:10014000030E3F6E406A416A426A010E436E0E0E14
:1001500053EC0AF0E8EC0CF057C068F058C069F0B6
:100160007250685C735069580BE3320E7224666EED
:10017000000E7320676E6650685C6750695804E330
:1001800068C072F069C073F0DADB02E2716A0DD008
:10019000DBDB02E2010E08D0B9DB02E2020E04D082
:1001A000BADB030ED8B0040E716EE8EC0CF04B0E07
:1001B000575C010E585806E286A804D0010E736EF3
:1001C0003B0E95DB280E94EC05F0426A020E436E5E
:1001D0000D0E53EC0AF0640E94EC05F0426A030E27
:1001E000436E0C0E53EC0AF0460E94EC05F0426A96
:1001F000040E436E0B0E53EC0AF0C80E94EC05F09F
:10020000426A050E436E0F0E53EC0AF02C0E46DBCD
:1002100091DB100E53EC0AF0010E0001DA6F2C0E88
:10022000D96F7EDB8F5114E0905112E0F29EF29C68
:10023000906BF28EF28C8A0E5F6EADEC04F00001D2
:10024000915147E0922B9151921943E18F6B41D02C
:10025000985114E0995112E0F29EF29C996BF28E43
:10026000F28C930E5F6E25EC0BF000019A5131E099
:100270009B2B9A519B192DE1986B2BD0A15114E027
:10028000A25112E0F29EF29CA26BF28EF28C9C0EB6
:100290004B6E08EC07F00001A3511BE0A42BA35107
:1002A000A41917E1A16B15D0AA5113E0AB5111E0CD
:1002B000F29EF29CAB6BF28EF28CA50E5F6EBCECE4
:1002C00008F00001AC5105E0AD2BAC51AD1901E1D6
:1002D000AA6BB35114E0B45112E0F29EF29CB46BDD
:1002E000F28EF28CAE0E5D6E03EC0AF00001B55199
:1002F00031E0B62BB551B6192DE1B36B2BD0BC5103
:1003000014E0BD5112E0F29EF29CBD6BF28EF28CB5
:10031000B70E3E6E52EC0CF00001BE511BE0BF2B3D
:10032000BE51BF1917E1BC6B15D0C55113E0C651C2
:1003300011E0F29EF29CC66BF28EF28CC00E656EDE
:100340003BEC09F00001C75105E0C82BC751C819A3
:1003500001E1C56B2E5019E02E6AD25113E0640EF4
:10036000D2610AD0D3C0B9FFBA6A9B0EB86EAA9AFE
:10037000A98AF28CF28EB8848090AA96A986010E82
:100380002D6E03D08080A996AA96245001E111D247
:100390008B808B828B848B868B888B8A8A8A8A88D7
:1003A0008A868A84BD6A040EC16E020EC06E2B500E
:1003B00001E1D7D12B6A8EDA77DAA2DAD76F6750EC
:1003C000D86F85DA71DA9CDAD96F6750DA6F010E6F
:1003D000D46FFE0ED95D0F0EDA5901E2C2D1010EC3
:1003E0001E6ED26BA996AA96BCD16F5001E1DBD1EB
:1003F0000A0E6F6003D0BD8098DAC66E82908B9033
:1004000001A202D082828B9201A402D082848B94BA
:1004100001A602D082868B9601A802D082888B9892
:1004200001AA02D0828A8B9A01AC02D0818A8A9A70
:1004300001AE02D081888A9802A002D081868A9675
:1004400002A2B1D181848A94AED16F5001E1ABD1C7
:100450000A0E6F6005D0BD82C00EBE6E6F3879DAAD
:1004600082928B9203A002D082808B9003A402D050
:1004700082848B9403A602D082868B9603A802D036
:1004800082888B9803AA02D0828A8B9A03AC02D00E
:10049000818A8A9A03AE02D081888A9804A083D187
:1004A00081868A9680D1705001E17DD10A0E7060FC
:1004B00005D0BD82C00EBE6E70384BDA82928B9230
:1004C00004A271D1BFD76E5001E16DD10A0E6E60EA
:1004D00003D0BD84BE6806DA82948B9405A002D056
:1004E00082808B9005A202D082828B9205A602D0D8
:1004F00082868B9605A802D082888B9805AA02D0A6
:10050000828A8B9A05AC02D0818A8A9A05AE4BD139
:1005100081888A9848D16F5001E145D10A0E6F60F9
:1005200003D0BD8402DAC46E82948B9406A03BD1C2
:10053000B7D76E5001E137D10A0E6E6004D0BD8688
:10054000C00EBE6ECFD982968B9607A002D0828055
:100550008B9007A202D082828B9207A402D0828461
:100560008B9407A802D082888B9807AA02D0828A2F
:100570008B9A07AC02D0818A8A9A07AE14D1C8D769
:100580006E5001E110D10A0E6E6003D0BD88BE68C6
:10059000A4D982988B9809A002D082808B9009A25E
:1005A00002D082828B9209A402D082848B9409A605
:1005B00002D082868B9609AA02D0828A8B9A09ACD5
:1005C00002D0818A8A9A09AE02D081888A980AA0CC
:1005D00002D081868A960AA2E6D034D76E5001E115
:1005E000E2D00A0E6E6004D0BD8AC00EBE6E75D910
:1005F000829A8B9A0BA002D082808B900BA202D0A1
:1006000082828B920BA402D082848B940BA602D0A0
:1006100082868B960BA802D082888B980BAC02D076
:10062000818A8A9A0BAE02D081888A980CA002D067
:1006300081868A960CA2B7D005D76E5001E1B3D05F
:100640000A0E6E6003D0BD86BE6A4CD9819A8A9A22
:100650000DA002D082808B900DA202D082828B925C
:100660000DA402D082848B940DA602D082868B9634
:100670000DA802D082888B980DAA02D0828A8B9A0C
:100680000DAE02D081888A980EA002D081868A960B
:100690000EA289D0D7D66E5001E185D00A0E6E60C9
:1006A00004D0BD883F0EBE6E18D981988A980FA0DD
:1006B00002D082808B900FA202D082828B920FA4F4
:1006C00002D082848B940FA602D082868B960FA8CC
:1006D00002D082888B980FAA02D0828A8B9A0FACA4
:1006E00002D0818A8A9A10A002D081868A9610A2AE
:1006F0005AD0A8D66F5057E00A0E6F6006D0BD8A58
:10070000BE6A6F38E842F80BC26E81968A9611A0D5
:1007100002D082808B9011A202D082828B9211A48F
:1007200002D082848B9411A602D082868B9611A867
:100730003AD082888B9837D06E5035E00A0E6E60C2
:1007400003D0BD8ABE6AC9D881968A9611AA02D002
:10075000828A8B9A11AC02D0818A8A9A11AE23D0F8
:10076000D7D6225001E141D6010A01E16ED6030A33
:1007700001E199D6010A01E1A6D6070A01E1CBD62B
:10078000010A01E1D6D6030A01E1FAD6010A01E124
:1007900025D70F0A01E151D7010A01E17CD7030AED
:1007A000A9E0010AC9E0222A0B0E226401D0226AC4
:1007B000246AD45101E136D52A2A020E2A1834E1DE
:1007C000C50ED95D090EDA591FE3D9C03EF0DAC073
:1007D0003FF0406A416A780E426E436A446A456A55
:1007E00042EC0DF06BD8D7C04EF0D8C04FF0506A35
:1007F000516ADEEC0BF04AC074F04BC075F00D0E80
:10080000745E000E755A04D0010E756E360E746E4D
:1008100075500AE1C90E745C07E2755003E1B40E2D
:10082000745C02E36AD863D8040E2A6434D07B5027
:100830003E6E3F6A406A416AE00E426E930E436E1E
:10084000040E446E456A42EC0DF038D874C03EF098
:1008500075C03FF0406A416A74C042F075C043F011
:10086000446A456A42EC0DF03EC04EF03FC04FF086
:1008700040C050F041C051F0DEEC0BF04AC06AF0CD
:100880004BC06BF04CC06CF04DC06DF0010E766E3D
:100890002A6A0001D46B0001D46BC4D43E6E010EF1
:1008A0003F6E406A416A010CA16EAA94A994A1828C
:1008B000A1B2FED7AA94A3500F0B12003EC04AF07B
:1008C0003FC04BF040C04CF041C04DF01200600EF4
:1008D000A06E150C600EA06E390C6E38E842F80B55
:1008E000C26E12006E38E842F80BC46E1200726ECF
:1008F000716A0001D26B2F6A1200010E736E360C02
:10090000676E666AA250661000011200730E725C78
:10091000010E73581200870E725C010E735812009C
:10092000000E87B2010E386E1200BE686F38E842C2
:10093000F80B1200030E426E3CC043F0030C3E0E57
:10094000725C010E735812005A0E725C010E7358DD
:100950001200E842F80BC66E120028502DE186B84E
:1009600086BA2AD090EC04F0385003E0010E1E6ED7
:1009700035D0E4EC0AF0606E1D0E606003D0010E0D
:100980001D6E2CD086BA2AD071500BE0E8EC0CF02A
:10099000370E575C010E585804E27DEC04F0726E7D
:1009A000716A2F6A010E766E276A010E256E206A23
:1009B000010E216E1F6A12D0280410E186B80ED0F5
:1009C0005F50F4EC09F0000EDF6E265007E0266A57
:1009D000320EAAD8A4EC07F053EC0AF0000E86B849
:1009E000010E286E1D5011E01E6A266A216A1D6ADA
:1009F000010E1F6E0001D26B3C509BD8DF6A320E95
:100A000093D8A4EC07F053EC0AF01E5016E01D6AD0
:100A100049EC0AF0266A1E6A216A0001D26B010EB7
:100A2000206E3C5086D8DF6AFA0E7ED80A0E426EDF
:100A30003CC043F0060E53EC0AF0205002E11F5078
:100A400002E0266A120086B886BA63D0345061E1AB
:100A500027505FE1255006E0256A87A203D0010EEA
:100A60001E6E010C715011E10001D26B266A2F50ED
:100A7000D8A41200010E2F6EFA0E56D8140E426E34
:100A80003CC043F00A0E53EF0AF0010E266E76507A
:100A900019E0766A6A506B106C106D1009E06AC03C
:100AA00061F06BC062F06CC063F06DC064F005D0A3
:100AB0001E0E616E626A636A646A61C0D2F00001F0
:100AC000D205D36F215009E0216A320E2DD8426A37
:100AD0003CC043F0040E53EC0AF05F50F4EC09F014
:100AE000DF2A5F50F4EC09F0F90EDF64F90C5F5077
:100AF000F4EC09F0DF6A0001D26B266AFA0E14D812
:100B00000A0E426E3CC043F053EC0AF0010E276E11
:100B1000010C010E766E266A5F50F4EC09F0000EAF
:100B2000DF6A0001D26B12003E6E3F6A406A416A82
:100B30001200090DF3508F0FD96EDA6A1200060009
:100B4000AAA60BD0A8BCA9A607D092908080010EBF
:100B50001D6E0001D26B9280AA96AFB2B0A274D083
:100B6000B09200018F510CE08D07D8A08E078D51F7
:100B70008E1106E1010E906F8BC08DF08CC08EF04F
:100B800098510CE09607D8A097079651971106E167
:100B9000010E996F94C096F095C097F0A1510CE0AA
:100BA0009F07D8A0A0079F51A01106E1010EA26FD8
:100BB0009DC09FF09EC0A0F0AA510CE0A807D8A04D
:100BC000A907A851A91106E1010EAB6FA6C0A8F0B4
:100BD000A7C0A9F0B3510CE0B107D8A0B207B1513A
:100BE000B21106E1010EB46FAFC0B1F0B0C0B2F007
:100BF000BC510CE0BA07D8A0BB07BA51BB1106E143
:100C0000010EBD6FB8C0BAF0B9C0BBF0C5510CE061
:100C1000C307D8A0C407C351C41106E1010EC66FB3
:100C2000C1C0C3F0C2C0C4F0CE510CE0CC07D8A004
:100C3000CD07CC51CD1106E1010ECF6FCAC0CCF06B
:100C4000CBC0CDF0010E2E6EAFB0B0A00DD0B090E5
:100C5000010E246E2D0408E12C2A040E2C6404D00D
:100C6000010E2B6E2C6A2D6AAABAA9AA05D0AA9ADF
:100C7000A996AA968080B894A9BAB0A80BD0B098CB
:100C80000001864B872B8651881904E18751891909
:100C900001E1C194ADAAADBE02D0ADAC0AD0AD9A0F
:100CA000AD9EAD9C8F988F9A9092919CAC9AAC9C83
:100CB000AC9E7C9211004B50F4EC09F0DFB010D0E8
:100CC0004B50F4EC09F0140EDF640AD0010E136EE1
:100CD000146EB8EC08F0A7EC0DF091D8A9EC07F071
:100CE0004B50F4EC09F00C0EDF606AD04B50F4EC82
:100CF00009F0DF5049E1136A146A81EC0DF06F6A64
:100D0000A9EC07F041D00A820E820B800F8069D0D7
:100D10000A800E800B820F8264D0098E0D8E0B84A8
:100D20000F845FD0098C0D8A0B860F86118A59D0EB
:100D3000098A0D880B880F88118C53D009860D867F
:100D40000B8C0F8A118E4DD009840D840B8E0F8C65
:100D500048D009820D820C80108043D009800D801C
:100D60000C8210823ED0058A078A3BD00588058E0A
:100D700005820780078C078834D00586058C05809E
:100D80000782078E07842DD04B50F4EC09F0DF501A
:100D9000BAE0010ABDE0030AC0E0010AC3E0070AA5
:100DA000C7E0010ACBE0030ACFE0010AD2E00F0A54
:100DB000D5E0010AD8E0030AD9E0010ADEE011D04B
:100DC0004B50F4EC09F0160EDF6002D06F2A09D008
:100DD0004B50F4EC09F02A0EDE1803E1000E45EC4E
:100DE0000EF04B50F4EC09F02A0EDE18D8B486AAA7
:100DF000120086B21200F9EC09F053EF0AF0156EFA
:100E00001550F60DF3507B24166E71C01BF01200C6
:100E10003C5099EC05F0DF5006E03C5035EC09F011
:100E2000050EDE1801E0306A78501FE088BC1DD046
:100E300082D80AE0345008E1305006E07B2A1E0ECA
:100E40007B6402D0050E7B6E325003E1010E326EE0
:100E500002D0312A336A6FD806E0320E94EC05F0E6
:100E600073D853EC0AF0010E776E000E88BC010EA9
:100E7000786E88BC29D05FD82CE034502AE13050FD
:100E800028E04B50F4EC09F0DF2A4B50F4EC09F069
:100E9000050EDF641ED04B50F4EC09F0DF6A4BD82E
:100EA00006E0320E94EC05F04FD853EC0AF0775080
:100EB00006E07B2A1E0E7B6402D0050E7B6E1E0EA2
:100EC0007B1807E1776A05D04B50F4EC09F0000E6F
:100ED000DF6E325007E0332A0C0E33640C0C326A9A
:100EE000336A1200310403E1010E306E21D0030E8B
:100EF00031641ED020D81CE030501AE134500DE18E
:100F0000010E346E320E94EC05F0640E426E3CC05D
:100F100043F0070E53EC0AF00BD0346A320E94EC17
:100F200005F02B0E426E3CC043F0080E53EC0AF065
:100F3000336A316A12003C50090DF3508A0FD96EA2
:100F4000DA6A040EDE181200490E426E3CC043F00D
:100F5000050C0A0E156019D0155080D8F5CF01F098
:100F60000150010B426E01A202D0018001D001901C
:100F7000425002E0018201D00192150407E1060E01
:100F8000161804E1600E016E01D0016A175002E0EC
:100F9000028001D00290185002E0028201D0029239
:100FA0000A0E166005D0165059D8F5CF03F001D0BF
:100FB000036A195002E0048201D00492135003E145
:100FC000406A416A02D0416A406840C005F017504B
:100FD00002E0068001D00690069213500FE00768E9
:100FE000086A0968030E0A6E0B68030E0C6E0D6822
:100FF000030E0E6E0F68030E106E0AD0076A086AA1
:10100000096A0A6A0B6A0C6A0D6A0E6A0F6A106A2C
:10101000426A145002E0E00E426E040E1B6402D0DD
:10102000116A0ED01B5004083E6E0F0E3F6E3E2A12
:1010300002D0D8903F363E2EFCD73F500F0B116E9A
:101040001C5002E0118801D0119842501112126A0E
:101050001A5002E00480120004901200010F3E6E4C
:101060003EC0F6FF010EF76E080012004B50F4EC84
:1010700009F0160EDF602BD04B50F4EC09F0DF5076
:101080000BE1010E136E146A010E176E6CD8186A0C
:101090001C6A0A0E45EC0EF04B50F4EC09F0DFB080
:1010A0004DD07A500FE0640E3E6E7A50A7EC0DF0F2
:1010B000156E0A0E426E3E6E7A50A7EC0DF0D6EC1D
:1010C0000DF024D0156A166A050E1B6E37D04B50F2
:1010D000F4EC09F02B0EDF601BD04B50F4EC09F060
:1010E000160EDE1809E1010E136E34C014F0176AF3
:1010F0003AD8010E186E1C6A4B50F4EC09F0DFB0C0
:101100001DD036D8A7EC0DF0156E28D8166EDCD79A
:101110004B50F4EC09F0DFA008D02AD8A7EC0DF072
:10112000156E1CD8166E050E1B6E4B50F4EC09F0B4
:10113000DF504C6E4C50340845EC0EF0A9EC07F033
:101140004B50F4EC09F0340EDE18D8B486AA120025
:1011500086B21200F9EC09F053EF0AF01550F60DC3
:10116000F3507B24120034C019F038C01AF012007A
:101170000A0E3E6E7B501200375014E086BA12D031
:101180002C0E4EEC04F0060E426E3CC043F0020EF4
:1011900053EC0AF0366AE8EC0CF057C072F058C015
:1011A00073F00DD086AA0BD0375009E15F50F4ECF4
:1011B00009F0DF6A356A86B202D0010E796E000E40
:1011C00086BA010E376E365007E05F50F4EC09F036
:1011D000000EDF6A356A120086AA41D086A216D0B8
:1011E000010E366E040E716EE8EC0CF0870E575C43
:1011F000010E5858D8A01200880E3E6E130E3F6E96
:10120000406A416A9AEC04F053EF0AF079500FE01B
:101210003C5099EC05F0DF5005E03C5026D8100E0C
:10122000DE1805E1796AF9EC09F053EC0AF05F5039
:10123000F4EC09F0DF2A5F50F4EC09F0F90EDF64FA
:10124000F90C5F50F4EC09F0DF6A352A2F0E356493
:101250002F0C356A030E7160030C712A030C356A7A
:101260005F50F4EC09F0DF6A000C090DF3508A0FAF
:10127000D96EDA6A120044D065C04BF036EF08F040
:1012800065C043F064EF0BF065C043F0C1EF0DF0B3
:1012900065C043F08AEF0DF065C043F019EF0CF024
:1012A00065C04BF0A2EF0BF065C043F016EF0DF0F8
:1012B00065C04BF0A7EF09F065C04BF05BEF06F09F
:1012C00065C05FF0ADEF04F065C043F068EF0DF06E
:1012D00065C05DF003EF0AF065C05FF0BCEF08F099
:1012E00065C04BF008EF07F065C05FF025EF0BF02D
:1012F00065C03EF052EF0CF065C043F0A2EF0AF07B
:101300006550D96EDA6ADF50B7E0010AB9E0030A26
:10131000BBE0010ABDE0070ABFE0010AC1E0030A21
:10132000C3E0010AC5E00F0AC7E0010AC9E0030AE9
:10133000CBE0010ACDE0070ACFE0010AD1E0030AC1
:10134000D3E0010AD5E01F0AD7E0010A12004B5092
:101350004BD80A0EDF600FD04B5046D8DF5027E144
:10136000010E136E146A176A010E186E196E38C0DA
:101370001AF01C6E1CD04B5037D8140EDF600AD008
:101380004B5032D8DF504C6E4C50130845EC0EF0E9
:101390000A0E0CD04B5028D85A0EDF6001D0F8D777
:1013A0004B5022D8DF504C6E4C506308706E4B503F
:1013B0001BD8DFB00BD04B5017D8130EDF6006D010
:1013C000B8EC08F0A7EC0DF0FFEC06F0A9EC07F084
:1013D0004B500AD8630EDE18D8B486AA120086B223
:1013E000120007D853EF0AF0D96EDA6A080ED92630
:1013F000080CF40E3E6E010E3F6E406A416A426A6E
:101400003CC043F0010C80B086B809D0000E87B212
:10141000010E391803E0010E3B6E3A6A3AD83B5090
:10142000D8B412003BD8E4EC0AF0DF6E37D8DF50B6
:10143000010ED8A4000E386E3A2A050E3A64050C47
:101440000001835182C05EF05F6A5E26000E5F225B
:1014500084515E26000E5F2285515E24606E000E70
:101460005F20616E60C05EF061C05FF0D8905F3257
:101470005E32D8905F325E325E507A6E3B6A320ED8
:1014800094EC05F0350E426E3CC043F0000E53EF75
:101490000AF0000E87B2010E396E12003A50800F2A
:1014A000D96EDA6A1200486E3EC044F03FC045F083
:1014B00040C046F041C047F0040E05D0D8904732F6
:1014C000463245324432E82EF9D744C049F045C08F
:1014D0004AF049504A10D8A443BE1200F29EF29C32
:1014E000435035EC09F048C0DFFF4350090DF3507D
:1014F0008B0F1AD8090DF3508D0F16D899EC05F003
:101500001BD8900FD96EDA6A17D8910FD96EDA6AA4
:1015100042C0DFFF4350090DF350920FD96EDA6AD3
:10152000DF6AF28EF28C000CD96EDA6A49C0DEFFF7
:101530004AC0DDFF43501200010EDF6E4350090D1B
:10154000F35012004350F4EC09F0DF500AE133D8B5
:1015500045EC0EF0080E156E166E040E1B6EA9EF0C
:1015600007F04350F4EC09F0DE0405E1000E45EC11
:101570000EF0A9EF07F049EC0AF0BAEC0CF000F01D
:10158000E9EC0DF032EC0EF0280EE82EFED70DEC53
:101590000EF027EC0EF01BEC0EF0020E456E040E62
:1015A000446EBA0EE82EFED7442EFCD7452EFAD74D
:1015B00000D0A9EF07F0010E136E146E176E186EAF
:1015C000196E1A6E1C6E0A0C81900D0EE82EFED755
:1015D00000F067EC04F054EC04F0586E576AA25027
:1015E0005712000E57C059F058C05AF05ABEFF0E9D
:1015F0005B6E5C6E818059C03EF05AC03FF05BC0AC
:1016000040F05CC041F0FE0E426E010E436E446A33
:10161000456A42EC0DF05EEC04F05950FF084E6E46
:101620000F0E5A544F6E000E5B54506E000E5C54F9
:10163000516EDEEC0BF04AC059F04BC05AF04CC072
:101640005BF04DC05CF05950120080B086BA1200B9
:1016500086B812003C5099EC05F0DF50D8A4120077
:10166000E8EC0CF057C062F058C063F07250625C56
:10167000735063580BE3320E7224606E000E7320B9
:10168000616E6050625C6150635804E362C072F046
:1016900063C073F09FEC04F002E2716A1200A4ECE4
:1016A00004F003E2010E716E010C86EC04F003E21B
:1016B000020E716E020C8BEC04F003E2030E716EED
:1016C000030C040E716E040C4350F4EC09F0DF506F
:1016D00004E129D845EC0EF031D84350F4EC09F080
:1016E000DFA00FD0040E716006D07128446E456AE9
:1016F000000E452203D0456A040E446E44C01BF020
:101700000CD0040E716004D071C046F0476A03D05B
:10171000476A030E466E46C01BF04350F4EC09F0D6
:10172000DF2AA9EF07F0136A146A176A34C019F0A8
:1017300038C01AF0186A010E1C6E0A0C630E156E82
:10174000166E630C4B50F4EC09F03F0EDF6012D0C4
:101750004B50F4EC09F0DF5016E1010E136E146EDD
:10176000176A010E186EB3EC08F01C6E0A0E45ECF9
:101770000EF009D04B50F4EC09F0DF504C6E4C5099
:10178000480845EC0EF04B50F4EC09F0DFB006D001
:10179000B8EC08F0A7EC0DF0FFEC06F0A9EC07F0B0
:1017A0004B50F4EC09F0480EDE18D8B486AA1200AB
:1017B00086B21200F9EC09F053EF0AF0526A536A4C
:1017C000546A556A4E504F105010511029E0010EC6
:1017D000566E06D0D8904E364F3650365136562A71
:1017E00051AEF8D7D89052365336543655364E50FF
:1017F0004A5C4F504B5850504C5851504D5809E38B
:101800004E504A5E4F504B5A50504C5A51504D5AC0
:101810005280D890513250324F324E32562EE2D74B
:1018200052C04AF053C04BF054C04CF055C04DF07C
:1018300012004350F4EC09F0DF500EE1010E136E7C
:10184000146E630E156E166E176A186A196A38C020
:101850001AF01C6A050E1B6E4350F4EC09F00A0ED8
:10186000DF6007D04350F4EC09F0DF50446E4428A9
:1018700007D04350F4EC09F0DF50446E4450130895
:101880006E6EA9EC07F04350F4EC09F0DF2A4350E8
:10189000F4EC09F0130EDF64130C4350F4EC09F080
:1018A000DF6A000C3C5099EC05F0DF502BE13E5014
:1018B000F4EC09F0DF2A3E50F4EC09F0180EDF6476
:1018C000180C3E50F4EC09F0DF6ABAEC0CF000F0B2
:1018D000E9EC0DF032EC0EF0280EE82EFED70DEC00
:1018E0000EF027EC0EF01BEC0EF0020E406E040E14
:1018F0003F6EBA0EE82EFED73F2EFCD7402EFAD709
:1019000000D012003E50F4EC09F0DF6A000C9A0E91
:10191000F66E1C0EF76E000EF86E00EED2F010EEB2
:1019200009F00900F5CFEEFFE550E150FAE1780E3D
:10193000F66E1C0EF76E000EF86E00EE6AF010EEFA
:1019400012F00900F5CFEEFFE550E150FAE100EEAC
:1019500080F0520EEE6AE806FDE100EE01F03C0E6A
:10196000EE6AE806FDE17C907C92000EF86E0001C4
:1019700086EF00F0BD6A27D883681FD8926ACD90A1
:10198000C194D390A49CA89EA69EA190300E896E6F
:10199000020E8A6E400E8B6E8F888F8A9082918C99
:1019A000AD9AAD9CAD9EAC8AAC8CAC8EF28CF28EB6
:1019B000070ED46E030000F0070C8468BF0E856E1E
:1019C000EF0E946EEF0C010E806E816E826A120033
:1019D0006AEC04F054EC04F05A6E596AA2505912A1
:1019E000000E59C05BF05AC05CF05CBEFF0E5D6E2D
:1019F0005E6E4A6A800E4B6E070E4C6E4D6A5BC07F
:101A00004EF05CC04FF05DC050F05EC051F0DEECB7
:101A10000BF04AC05BF04BC05CF04CC05DF04DC0B9
:101A20005EF05BC057F05CC058F012004350F4EC1D
:101A300009F0DFA008D01BD81A6A20D845EC0EF0B8
:101A40009EEC0BF007D013D8010E1A6E17D845EC98
:101A50000EF0F6D74350F4EC09F0090EDE1802E060
:101A6000A9EF07F0000E45EC0EF0A9EF07F0010E0C
:101A7000136E146A176A186A196A12001C6A050E36
:101A80001B6E0A0C466A476A486A496A3EA008D03B
:101A9000425046264350472244504822455049224E
:101AA000D8904236433644364536D890413240329B
:101AB0003F323E323E503F1040104110E7E146C0F9
:101AC0003EF047C03FF048C040F049C041F012002E
:101AD0004350F4EC09F0DFA005D0000E45EC0EF009
:101AE000A9EF07F0010E136E146E0BD80A0E45EC29
:101AF0000EF0B8EC08F0A7EC0DF0FFEC06F0A9EF43
:101B000007F0176A010E186E196A38C01AF0010E34
:101B10001C6E010C4350F4EC09F0DF500BE193EC28
:101B20000BF045EC0EF0630E156E166E71C01BF0D7
:101B3000A9EF07F04350F4EC09F0020EDE1802E0C2
:101B4000A9EF07F0000E45EC0EF0A9EF07F03F6E8D
:101B5000416A3E5014E0010E406E03D0D8903E36EC
:101B6000402A3EAEFBD7D89041363E503F5C03E35F
:101B70003E503F5E4180D8903E32402EF4D74150D7
:101B800012004350F4EC09F0DFA005D0000E45EC44
:101B90000EF0A9EF07F0040E1B6EDBEC0AF045EC2B
:101BA0000EF0080E156E166EA9EF07F0436E080EC4
:101BB000446E456AD89043344534456ED8904336D8
:101BC0004250455C02E34250455E442EF3D74550F7
:101BD0001200730EF06EF16AE3EC0CF0FE0E896EEB
:101BE0008A6E8B68FD0E836EDDEC0CF0010E926E3A
:101BF000D36EB668AB9412003E6A3E5099EC05F085
:101C0000DF6A3E50090DF350900FD96EDA6ADF6A31
:101C10003E2A070E3E64F1D7070C010ECF6EF30E7D
:101C2000CE6ED16AD06A180ECD6ECC6ACD80AF82EE
:101C3000F28CF28E1200A468390EA86E140EA76EF4
:101C4000A88EAA96A986F28CF28EAA96140C4F0E34
:101C5000C86ECA6AC16A020EC06EB098AF98B198D9
:101C6000C184020C310ED66ED56A030ED76EB090C9
:101C7000AF80F28CF28E030C1E0000000A0A0A01EB
:101C8000A4012C01010101011E083E6E3EC06FF04F
:101C90003EC070F03EC06EF0120000000000000D6B
:031CA000052C010F
:020000040030CA
:04000000FCFF27FFDB
:00000001FF
