:0400000019EF00F004
:060008007C82ACED05F066
:100018007C80E0CF3DF0B0B802D0AAA402D0B0985E
:0E002800AA943DC0E0FF7C90100094EF0CF015
:10010000007D0CB59DCCD9F90DFDDD00F6EC0DF0B0
:100110003FEC0EF01AEC0EF028EC0EF034EC0EF082
:1001200009EC0EF056EC0AF0060E3C6E280EA1EC1F
:1001300005F0426A436A090E60EC0AF0E80E3E6E72
:10014000030E3F6E406A416A426A010E436E0E0E14
:1001500060EC0AF0F5EC0CF057C068F058C069F09C
:100160007250685C735069580BE3320E7224666EED
:10017000000E7320676E6650685C6750695804E330
:1001800068C072F069C073F0D1DB02E2716A0DD011
:10019000D2DB02E2010E08D0D7DB02E2020E04D06D
:1001A000D8DB030ED8B0040E716EF5EC0CF04B0EDC
:1001B000575C010E585808E286A806D0010E736EEF
:1001C0003B0E726E716AD4DB280EA1EC05F0426A18
:1001D000020E436E0D0E60EC0AF0640EA1EC05F009
:1001E000426A030E436E0C0E60EC0AF0460EA1EC60
:1001F00005F0426A040E436E0B0E60EC0AF0C80E66
:10020000A1EC05F0426A050E436E0F0E60EC0AF099
:100210002C0E4FDBA8DB100E60EC0AF0010E000183
:10022000DA6F2C0ED96F9ADB8F5114E0905112E0E7
:10023000F29EF29C906BF28EF28C8A0E5F6EBCEC9A
:1002400004F00001915147E0922B9151921943E142
:100250008F6B41D0985114E0995112E0F29EF29CBC
:10026000996BF28EF28C930E5F6E32EC0BF0000104
:100270009A5131E09B2B9A519B192DE1986B2BD011
:10028000A15114E0A25112E0F29EF29CA26BF28EF8
:10029000F28C9C0E4B6E15EC07F00001A3511BE095
:1002A000A42BA351A41917E1A16B15D0AA5113E0F7
:1002B000AB5111E0F29EF29CAB6BF28EF28CA50E6C
:1002C0005F6EC9EC08F00001AC5105E0AD2BAC51FC
:1002D000AD1901E1AA6BB35114E0B45112E0F29EE2
:1002E000F29CB46BF28EF28CAE0E5D6E10EC0AF0E6
:1002F0000001B55131E0B62BB551B6192DE1B36B04
:100300002BD0BC5114E0BD5112E0F29EF29CBD6BAB
:10031000F28EF28CB70E3E6E5FEC0CF00001BE5117
:100320001BE0BF2BBE51BF1917E1BC6B15D0C551E7
:1003300013E0C65111E0F29EF29CC66BF28EF28C75
:10034000C00E656E48EC09F00001C75105E0C82BEE
:10035000C751C81901E1C56B2E5019E02E6AD25160
:1003600013E0640ED2610AD0D3C0B9FFBA6A9B0E03
:10037000B86EAA9AA98AF28CF28EB8848090AA9656
:10038000A986010E2D6E03D08080A996AA962450CE
:1003900001E11AD28B808B828B848B868B888B8A2F
:1003A0008A8A8A888A868A84BD6A040EC16E020E91
:1003B000C06E2B5001E1DED12B6A94DA80DAB0DA1C
:1003C000D76F6750D86F91DA7ADAAADAD96F6750A7
:1003D000DA6F010ED46FFE0ED95D0F0EDA5901E20D
:1003E000C9D1010E1E6ED26BA996AA96C3D16F50C9
:1003F00001E1E4D10A0E6F6004D0BD80BE686F38A1
:100400009FDA82908B9001A202D082828B9201A40B
:1004100002D082848B9401A602D082868B9601A89A
:1004200002D082888B9801AA02D0828A8B9A01AC72
:1004300002D0818A8A9A01AE02D081888A9802A06D
:1004400002D081868A9602A2B9D181848A94B6D1DB
:100450006F5001E1B3D10A0E6F6001D04EDA829283
:100460008B9203A002D082808B9003A402D082845E
:100470008B9403A602D082868B9603A802D0828832
:100480008B9803AA02D0828A8B9A03AC02D0818A0D
:100490008A9A03AE93D181888A9890D1705001E1F5
:1004A0008DD10A0E706005D0BD82C00EBE6E703850
:1004B00047DA82928B9204A281D1C7D76E5001E1B4
:1004C0007DD10A0E6E6003D0BD84BE681EDA8294B0
:1004D0008B9405A002D082808B9005A202D08282EC
:1004E0008B9205A602D082868B9605A802D08288C0
:1004F0008B9805AA02D0828A8B9A05AC02D0818A99
:100500008A9A05AE5BD1C7D76F5001E157D10A0E69
:100510006F6006D0BD84BE686F38E842F80BC46EC9
:1005200082948B9406A04AD181868A9647D16E50D8
:1005300001E144D10A0E6E6004D0BD86C00EBE6ECD
:10054000E4D982968B9607A002D082808B9007A276
:1005500002D082828B9207A402D082848B9407A857
:1005600002D082888B9807AA02D0828A8B9A07AC25
:1005700002D0818A8A9A07AE21D18DD76E5001E1CF
:100580001DD10A0E6E6003D0BD88BE68B1D98298B5
:100590008B9809A002D082808B9009A202D082821F
:1005A0008B9209A402D082848B9409A602D0828601
:1005B0008B9609AA02D0828A8B9A09AC02D0818AD2
:1005C0008A9A09AE02D081888A980AA002D08186D0
:1005D0008A960AA2F3D039D76E5001E1EFD00A0E05
:1005E0006E6004D0BD8AC00EBE6E82D9829A8B9A8C
:1005F0000BA002D082808B900BA202D082828B92C1
:100600000BA402D082848B940BA602D082868B9698
:100610000BA802D082888B980BAC02D0818A8A9A70
:100620000BAE02D081888A980CA002D081868A966F
:100630000CA2C4D00AD76E5001E1C0D00A0E6E6081
:1006400003D0BD86BE6A61D9819A8A9A0DA002D074
:1006500082808B900DA202D082828B920DA402D058
:1006600082848B940DA602D082868B960DA802D030
:1006700082888B980DAA02D0828A8B9A0DAE02D006
:1006800081888A980EA002D081868A960EA296D082
:10069000DCD66E5001E192D00A0E6E6004D0BD88A7
:1006A0003F0EBE6E25D981988A980FA002D0828015
:1006B0008B900FA202D082828B920FA402D08284F0
:1006C0008B940FA602D082868B960FA802D08288C8
:1006D0008B980FAA02D0828A8B9A0FAC02D0818AA3
:1006E0008A9A10A002D081868A9610A267D0ADD6D1
:1006F0006F5064E00A0E6F6006D0BD8ABE6A6F3824
:10070000E842F80BC26E81968A9611A002D08280D0
:100710008B9011A202D082828B9211A402D082848B
:100720008B9411A602D082868B9611A847D082881E
:100730008B9844D06E5042E00A0E6E6003D0BD8AA2
:10074000BE6AD6D881968A9611AA02D0828A8B9ADE
:1007500011AC02D0818A8A9A11AE30D09CD66F50EB
:100760002DE00A0E6F6001D0C8D882928B9204A04F
:1007700025D0DAD6225001E13AD6010A01E168D645
:10078000030A01E18BD6010A01E198D6070A01E1CB
:10079000BBD6010A01E1CBD6030A01E1EFD6010A7B
:1007A00001E11AD70F0A01E146D7010A01E171D729
:1007B000030A9EE0010ABEE0070AD1E0222A0C0EDD
:1007C000226401D0226A246AD45101E12DD52A2A5B
:1007D000020E2A1834E1C50ED95D090EDA591FE35D
:1007E000D9C03EF0DAC03FF0406A416A780E426EEE
:1007F000436A446A456A4FEC0DF06BD8D7C04EF09F
:10080000D8C04FF0506A516AEBEC0BF04AC074F05C
:100810004BC075F00D0E745E000E755A04D0010EBB
:10082000756E360E746E75500AE1C90E745C07E27F
:10083000755003E1B40E745C02E36CD899D8040ED1
:100840002A6434D07B503E6E3F6A406A416AE00EB3
:10085000426E930E436E040E446E456A4FEC0DF0EB
:1008600038D874C03EF075C03FF0406A416A74C029
:1008700042F075C043F0446A456A4FEC0DF03EC04B
:100880004EF03FC04FF040C050F041C051F0EBEC93
:100890000BF04AC06AF04BC06BF04CC06CF04DC01E
:1008A0006DF0010E766E2A6A0001D46B0001D46BE4
:1008B000BBD43E6E010E3F6E406A416A010CA16ED0
:1008C000AA94A994A182A1B2FED7AA94A3500F0B17
:1008D00012003EC04AF03FC04BF040C04CF041C057
:1008E0004DF01200600EA06E390C600EA06E150C5B
:1008F0006E38E842F80BC26E1200BD82C00EBE6EAA
:100900006F38E842F80BC66E12006E38E842F80BFA
:10091000C46E1200010E736E360E726E716A120092
:10092000676E666AA2506610000112003E0E725C8D
:10093000010E735812005A0E725C010E73581200A9
:10094000E842F80BC66E1200730E725C010E73580B
:100950001200870E725C010E73581200000E87B2EF
:10096000010E386E1200030E426E3CC043F0030CC1
:100970000001D26B2F6A120028502BE186B886BA8C
:1009800028D0AEEC04F0385003E0010E1E6E33D0D8
:10099000F1EC0AF0606E1D0E606003D0010E1D6E5A
:1009A0002AD086BA28D0715009E0F5EC0CF0370E49
:1009B000575C010E585802E28AEC04F02F6A010ECF
:1009C000766E276A010E256E206A010E216E1F6A5F
:1009D00012D0280410E186B80ED05F5001EC0AF066
:1009E000000EDF6E265007E0266A320EAAD8B1EC60
:1009F00007F060EC0AF0000E86B8010E286E1D505C
:100A000011E01E6A266A216A1D6A010E1F6E00012E
:100A1000D26B3C509BD8DF6A320E93D8B1EC07F012
:100A200060EC0AF01E5016E01D6A56EC0AF0266AC9
:100A30001E6A216A0001D26B010E206E3C5086D8DE
:100A4000DF6AFA0E7ED80A0E426E3CC043F0060EF4
:100A500060EC0AF0205002E11F5002E0266A12000A
:100A600086B886BA63D0345061E127505FE12550E3
:100A700006E0256A87A203D0010E1E6E010C71509C
:100A800011E10001D26B266A2F50D8A41200010E8A
:100A90002F6EFA0E56D8140E426E3CC043F00A0E6A
:100AA00060EF0AF0010E266E765019E0766A6A5001
:100AB0006B106C106D1009E06AC061F06BC062F0E1
:100AC0006CC063F06DC064F005D01E0E616E626A8A
:100AD000636A646A61C0D2F00001D205D36F21500D
:100AE00009E0216A320E2DD8426A3CC043F0040E60
:100AF00060EC0AF05F5001EC0AF0DF2A5F5001EC75
:100B00000AF0F90EDF64F90C5F5001EC0AF0DF6ABD
:100B10000001D26B266AFA0E14D80A0E426E3CC04F
:100B200043F060EC0AF0010E276E010C010E766EA8
:100B3000266A5F5001EC0AF0000EDF6A0001D26BFA
:100B400012003E6E3F6A406A416A1200090DF3507E
:100B50008F0FD96EDA6A12000600AAA60BD0A8BCC5
:100B6000A9A607D092908080010E1D6E0001D26B65
:100B70009280AA96AFB2B0A274D0B09200018F5109
:100B80000CE08D07D8A08E078D518E1106E1010E65
:100B9000906F8BC08DF08CC08EF098510CE0960752
:100BA000D8A097079651971106E1010E996F94C04E
:100BB00096F095C097F0A1510CE09F07D8A0A00730
:100BC0009F51A01106E1010EA26F9DC09FF09EC033
:100BD000A0F0AA510CE0A807D8A0A907A851A91114
:100BE00006E1010EAB6FA6C0A8F0A7C0A9F0B351F3
:100BF0000CE0B107D8A0B207B151B21106E1010E65
:100C0000B46FAFC0B1F0B0C0B2F0BC510CE0BA07E5
:100C1000D8A0BB07BA51BB1106E1010EBD6FB8C029
:100C2000BAF0B9C0BBF0C5510CE0C307D8A0C407E7
:100C3000C351C41106E1010EC66FC1C0C3F0C2C0EA
:100C4000C4F0CE510CE0CC07D8A0CD07CC51CD11CB
:100C500006E1010ECF6FCAC0CCF0CBC0CDF0010EC3
:100C60002E6EAFB0B0A00DD0B090010E246E2D044A
:100C700008E12C2A040E2C6404D0010E2B6E2C6A81
:100C80002D6AAABAA9AA05D0AA9AA996AA9680807E
:100C9000B894A9BAB0A80BD0B0980001864B872BA6
:100CA0008651881904E18751891901E1C194ADAADF
:100CB000ADBE02D0ADAC0AD0AD9AAD9EAD9C8F98C2
:100CC0008F9A9092919CAC9AAC9CAC9E7C921100B5
:100CD0004B5001EC0AF0DFB010D04B5001EC0AF0A1
:100CE000140EDF640AD0010E136E146EC5EC08F00A
:100CF000B4EC0DF091D8B6EC07F04B5001EC0AF0D3
:100D00000C0EDF606AD04B5001EC0AF0DF5049E175
:100D1000136A146A8EEC0DF06F6AB6EC07F041D0DE
:100D20000A820E820B800F8069D00A800E800B82AF
:100D30000F8264D0098E0D8E0B840F845FD0098CD6
:100D40000D8A0B860F86118A59D0098A0D880B8867
:100D50000F88118C53D009860D860B8C0F8A118E4B
:100D60004DD009840D840B8E0F8C48D009820D82E2
:100D70000C80108043D009800D800C8210823ED000
:100D8000058A078A3BD00588058E05820780078C77
:100D9000078834D00586058C05800782078E078476
:100DA0002DD04B5001EC0AF0DF50BAE0010ABDE053
:100DB000030AC0E0010AC3E0070AC7E0010ACBE06A
:100DC000030ACFE0010AD2E00F0AD5E0010AD8E019
:100DD000030AD9E0010ADEE011D04B5001EC0AF021
:100DE000160EDF6002D06F2A09D04B5001EC0AF0DA
:100DF0002A0EDE1803E1000E52EC0EF04B5001EC0F
:100E00000AF02A0EDE18D8B486AA120086B21200A2
:100E100006EC0AF060EF0AF0156E1550F60DF3506F
:100E20007B24166E71C01BF012003C50A6EC05F03E
:100E3000DF5006E03C5042EC09F0050EDE1801E000
:100E4000306A78501FE088BC1DD082D80AE0345048
:100E500008E1305006E07B2A1E0E7B6402D0050EAE
:100E60007B6E325003E1010E326E02D0312A336ABA
:100E70006FD806E0320EA1EC05F073D860EC0AF0F2
:100E8000010E776E000E88BC010E786E88BC29D0EA
:100E90005FD82CE034502AE1305028E04B5001EC70
:100EA0000AF0DF2A4B5001EC0AF0050EDF641ED079
:100EB0004B5001EC0AF0DF6A4BD806E0320EA1EC91
:100EC00005F04FD860EC0AF0775006E07B2A1E0E42
:100ED0007B6402D0050E7B6E1E0E7B1807E1776ADD
:100EE00005D04B5001EC0AF0000EDF6E325007E0E7
:100EF000332A0C0E33640C0C326A336A120031044C
:100F000003E1010E306E21D0030E31641ED020D8D3
:100F10001CE030501AE134500DE1010E346E320EF7
:100F2000A1EC05F0640E426E3CC043F0070E60EC8D
:100F30000AF00BD0346A320EA1EC05F02B0E426E93
:100F40003CC043F0080E60EC0AF0336A316A1200CC
:100F50003C50090DF3508A0FD96EDA6A040EDE1880
:100F60001200490E426E3CC043F0050C0A0E15609B
:100F700019D0155080D8F5CF01F00150010B426E09
:100F800001A202D0018001D00190425002E0018212
:100F900001D00192150407E1060E161804E1600E57
:100FA000016E01D0016A175002E0028001D0029068
:100FB000185002E0028201D002920A0E166005D09B
:100FC000165059D8F5CF03F001D0036A195002E04A
:100FD000048201D00492135003E1406A416A02D0B6
:100FE000416A406840C005F0175002E0068001D019
:100FF0000690069213500FE00768086A0968030E0E
:101000000A6E0B68030E0C6E0D68030E0E6E0F68F1
:10101000030E106E0AD0076A086A096A0A6A0B6A28
:101020000C6A0D6A0E6A0F6A106A426A145002E076
:10103000E00E426E040E1B6402D0116A0ED01B50EB
:1010400004083E6E0F0E3F6E3E2A02D0D8903F3607
:101050003E2EFCD73F500F0B116E1C5002E0118842
:1010600001D0119842501112126A1A5002E0048005
:10107000120004901200010F3E6E3EC0F6FF010EFA
:10108000F76E080012004B5001EC0AF0160EDF60FC
:101090002BD04B5001EC0AF0DF500BE1010E136E28
:1010A000146A010E176E6CD8186A1C6A0A0E52EC8C
:1010B0000EF04B5001EC0AF0DFB04DD07A500FE04B
:1010C000640E3E6E7A50B4EC0DF0156E0A0E426E50
:1010D0003E6E7A50B4EC0DF0E3EC0DF024D0156ABE
:1010E000166A050E1B6E37D04B5001EC0AF02B0E22
:1010F000DF601BD04B5001EC0AF0160EDE1809E140
:10110000010E136E34C014F0176A3AD8010E186E2F
:101110001C6A4B5001EC0AF0DFB01DD036D8B4EC9D
:101120000DF0156E28D8166EDCD74B5001EC0AF086
:10113000DFA008D02AD8B4EC0DF0156E1CD8166EBE
:10114000050E1B6E4B5001EC0AF0DF504C6E4C50FC
:10115000340852EC0EF0B6EC07F04B5001EC0AF0FC
:10116000340EDE18D8B486AA120086B2120006EC3D
:101170000AF060EF0AF01550F60DF3507B241200D0
:1011800034C019F038C01AF012000A0E3E6E7B50BF
:101190001200375014E086BA12D02C0E59EC04F02D
:1011A000060E426E3CC043F0020E60EC0AF0366A56
:1011B000F5EC0CF057C072F058C073F00DD086AA51
:1011C0000BD0375009E15F5001EC0AF0DF6A356A55
:1011D00086B202D0010E796E000E86BA010E376E0D
:1011E000365007E05F5001EC0AF0000EDF6A356A06
:1011F000120086AA41D086A216D0010E366E040EC9
:10120000716EF5EC0CF0870E575C010E5858D8A0A3
:101210001200880E3E6E130E3F6E406A416AB3ECB8
:1012200004F060EF0AF079500FE03C50A6EC05F0B6
:10123000DF5005E03C5026D8100EDE1805E1796A33
:1012400006EC0AF060EC0AF05F5001EC0AF0DF2ACD
:101250005F5001EC0AF0F90EDF64F90C5F5001EC0D
:101260000AF0DF6A352A2F0E35642F0C356A030E1B
:101270007160030C712A030C356A5F5001EC0AF0AF
:10128000DF6A000C090DF3508A0FD96EDA6A12007A
:1012900044D065C04BF043EF08F065C043F071EFF8
:1012A0000BF065C043F0CEEF0DF065C043F097EF53
:1012B0000DF065C043F026EF0CF065C04BF0AFEFCA
:1012C0000BF065C043F023EF0DF065C04BF0B4EFB9
:1012D00009F065C04BF068EF06F065C05FF0BCEF49
:1012E00004F065C043F075EF0DF065C05DF010EFE0
:1012F0000AF065C05FF0C9EF08F065C04BF015EF6C
:1013000007F065C05FF032EF0BF065C03EF05FEFB5
:101310000CF065C043F0AFEF0AF06550D96EDA6AA1
:10132000DF50B7E0010AB9E0030ABBE0010ABDE003
:10133000070ABFE0010AC1E0030AC3E0010AC5E0F1
:101340000F0AC7E0010AC9E0030ACBE0010ACDE0B9
:10135000070ACFE0010AD1E0030AD3E0010AD5E091
:101360001F0AD7E0010A12004B504BD80A0EDF606B
:101370000FD04B5046D8DF5027E1010E136E146A90
:10138000176A010E186E196E38C01AF01C6E1CD048
:101390004B5037D8140EDF600AD04B5032D8DF5094
:1013A0004C6E4C50130852EC0EF00A0E0CD04B5001
:1013B00028D85A0EDF6001D0F8D74B5022D8DF5022
:1013C0004C6E4C506308706E4B501BD8DFB00BD086
:1013D0004B5017D8130EDF6006D0C5EC08F0B4EC04
:1013E0000DF00CEC07F0B6EC07F04B500AD8630E8A
:1013F000DE18D8B486AA120086B2120007D860EFB1
:101400000AF0D96EDA6A080ED926080CF40E3E6E80
:10141000010E3F6E406A416A426A3CC043F0010CD3
:1014200080B086B809D0000E87B2010E391803E0EB
:10143000010E3B6E3A6A3AD83B50D8B412003BD802
:10144000F1EC0AF0DF6E37D8DF50010ED8A4000EA1
:10145000386E3A2A050E3A64050C0001835182C0A9
:101460005EF05F6A5E26000E5F2284515E26000EEB
:101470005F2285515E24606E000E5F20616E60C049
:101480005EF061C05FF0D8905F325E32D8905F321C
:101490005E325E507A6E3B6A320EA1EC05F0350E7C
:1014A000426E3CC043F0000E60EF0AF0000E87B2BF
:1014B000010E396E12003A50800FD96EDA6A1200AE
:1014C000486E3EC044F03FC045F040C046F041C0C9
:1014D00047F0040E05D0D8904732463245324432A8
:1014E000E82EF9D744C049F045C04AF049504A10A7
:1014F000D8A443BE1200F29EF29C435042EC09F085
:1015000048C0DFFF4350090DF3508B0F1AD8090D67
:10151000F3508D0F16D8A6EC05F01BD8900FD96E9E
:10152000DA6A17D8910FD96EDA6A42C0DFFF4350EA
:10153000090DF350920FD96EDA6ADF6AF28EF28CDF
:10154000000CD96EDA6A49C0DEFF4AC0DDFF4350A5
:101550001200010EDF6E4350090DF350120043508C
:1015600001EC0AF0DF500AE133D852EC0EF0080E1D
:10157000156E166E040E1B6EB6EF07F0435001ECAD
:101580000AF0DE0405E1000E52EC0EF0B6EF07F0B3
:1015900056EC0AF0C7EC0CF000F0F6EC0DF03FEC66
:1015A0000EF0280EE82EFED71AEC0EF034EC0EF0FA
:1015B00028EC0EF0020E456E040E446EBA0EE82EB4
:1015C000FED7442EFCD7452EFAD700D0B6EF07F051
:1015D000010E136E146E176E186E196E1A6E1C6E55
:1015E0000A0C81900D0EE82EFED700F075EC04F089
:1015F0005FEC04F0586E576AA2505712000E57C0A5
:1016000059F058C05AF05ABEFF0E5B6E5C6E818076
:1016100059C03EF05AC03FF05BC040F05CC041F0A2
:10162000FE0E426E010E436E446A456A4FEC0DF0A9
:1016300069EC04F05950FF084E6E0F0E5A544F6E6D
:10164000000E5B54506E000E5C54516EEBEC0BF0D0
:101650004AC059F04BC05AF04CC05BF04DC05CF032
:101660005950120080B086BA120086B812003C5061
:10167000A6EC05F0DF50D8A41200F5EC0CF057C032
:1016800062F058C063F07250625C735063580BE3B1
:10169000320E7224606E000E7320616E6050625CC8
:1016A0006150635804E362C072F063C073F096EC5B
:1016B00004F002E2716A12009BEC04F003E2010EF6
:1016C000716E010CA4EC04F003E2020E716E020CC8
:1016D000A9EC04F003E2030E716E030C040E716EAC
:1016E000040C435001EC0AF0DF5004E129D852EC1D
:1016F0000EF031D8435001EC0AF0DFA00FD0040EF9
:10170000716006D07128446E456A000E452203D0F0
:10171000456A040E446E44C01BF00CD0040E716088
:1017200004D071C046F0476A03D0476A030E466E84
:1017300046C01BF0435001EC0AF0DF2AB6EF07F079
:10174000136A146A176A34C019F038C01AF0186A9C
:10175000010E1C6E0A0C630E156E166E630C4B5058
:1017600001EC0AF03F0EDF6012D04B5001EC0AF0A2
:10177000DF5016E1010E136E146E176A010E186E1B
:10178000C0EC08F01C6E0A0E52EC0EF009D04B5063
:1017900001EC0AF0DF504C6E4C50480852EC0EF051
:1017A0004B5001EC0AF0DFB006D0C5EC08F0B4EC09
:1017B0000DF00CEC07F0B6EC07F04B5001EC0AF022
:1017C000480EDE18D8B486AA120086B2120006ECC3
:1017D0000AF060EF0AF0526A536A546A556A4E5032
:1017E0004F105010511029E0010E566E06D0D890BF
:1017F0004E364F3650365136562A51AEF8D7D8901D
:1018000052365336543655364E504A5C4F504B582C
:1018100050504C5851504D5809E34E504A5E4F506D
:101820004B5A50504C5A51504D5A5280D8905132C8
:1018300050324F324E32562EE2D752C04AF053C089
:101840004BF054C04CF055C04DF01200435001EC29
:101850000AF0DF500EE1010E136E146E630E156E6A
:10186000166E176A186A196A38C01AF01C6A050ED3
:101870001B6E435001EC0AF00A0EDF6007D04350A4
:1018800001EC0AF0DF50446E442807D0435001ECCD
:101890000AF0DF50446E445013086E6EB6EC07F049
:1018A000435001EC0AF0DF2A435001EC0AF0130E1A
:1018B000DF64130C435001EC0AF0DF6A000C3C506B
:1018C000A6EC05F0DF502BE13E5001EC0AF0DF2AD8
:1018D0003E5001EC0AF0180EDF64180C3E5001EC8B
:1018E0000AF0DF6AC7EC0CF000F0F6EC0DF03FEC0C
:1018F0000EF0280EE82EFED71AEC0EF034EC0EF0A7
:1019000028EC0EF0020E406E040E3F6EBA0EE82E6A
:10191000FED73F2EFCD7402EFAD700D012003E5003
:1019200001EC0AF0DF6A000CB40EF66E1C0EF76EC6
:10193000000EF86E00EED2F010EE09F00900F5CFBF
:10194000EEFFE550E150FAE1920EF66E1C0EF76ED6
:10195000000EF86E00EE6AF010EE12F00900F5CFFE
:10196000EEFFE550E150FAE100EE80F0520EEE6A33
:10197000E806FDE100EE01F03C0EEE6AE806FDE14E
:101980007C907C92000EF86E000186EF00F0BD6A3C
:1019900027D883681FD8926ACD90C194D390A49C15
:1019A000A89EA69EA190300E896E020E8A6E400EF1
:1019B0008B6E8F888F8A9082918CAD9AAD9CAD9EF4
:1019C000AC8AAC8CAC8EF28CF28E070ED46E030017
:1019D00000F0070C8468BF0E856EEF0E946EEF0C5E
:1019E000010E806E816E826A120072EC04F05FEC70
:1019F00004F05A6E596AA2505912000E59C05BF099
:101A00005AC05CF05CBEFF0E5D6E5E6E4A6A800E70
:101A10004B6E070E4C6E4D6A5BC04EF05CC04FF0D3
:101A20005DC050F05EC051F0EBEC0BF04AC05BF0D3
:101A30004BC05CF04CC05DF04DC05EF05BC057F039
:101A40005CC058F01200435001EC0AF0DFA008D04F
:101A50001BD81A6A20D852EC0EF0ABEC0BF007D072
:101A600013D8010E1A6E17D852EC0EF0F6D7435069
:101A700001EC0AF0090EDE1802E0B6EF07F0000EE6
:101A800052EC0EF0B6EF07F0010E136E146A176AEF
:101A9000186A196A12001C6A050E1B6E0A0C466A47
:101AA000476A486A496A3EA008D0425046264350D9
:101AB00047224450482245504922D8904236433666
:101AC00044364536D890413240323F323E323E5065
:101AD0003F1040104110E7E146C03EF047C03FF0E4
:101AE00048C040F049C041F01200435001EC0AF0F8
:101AF000DFA005D0000E52EC0EF0B6EF07F0010E9D
:101B0000136E146E0BD80A0E52EC0EF0C5EC08F0F2
:101B1000B4EC0DF00CEC07F0B6EF07F0176A010E0D
:101B2000186E196A38C01AF0010E1C6E010C435071
:101B300001EC0AF0DF500BE1A0EC0BF052EC0EF0E0
:101B4000630E156E166E71C01BF0B6EF07F04350B2
:101B500001EC0AF0020EDE1802E0B6EF07F0000E0C
:101B600052EC0EF0B6EF07F03F6E416A3E5014E0C3
:101B7000010E406E03D0D8903E36402A3EAEFBD7D1
:101B8000D89041363E503F5C03E33E503F5E41807B
:101B9000D8903E32402EF4D741501200435001EC11
:101BA0000AF0DFA005D0000E52EC0EF0B6EF07F001
:101BB000040E1B6EE8EC0AF052EC0EF0080E156EE7
:101BC000166EB6EF07F0436E080E446E456AD89065
:101BD00043344534456ED89043364250455C02E369
:101BE0004250455E442EF3D745501200730EF06EFE
:101BF000F16AF0EC0CF0FE0E896E8A6E8B68FD0EB9
:101C0000836EEAEC0CF0010E926ED36EB668AB9464
:101C100012003E6A3E50A6EC05F0DF6A3E50090D08
:101C2000F350900FD96EDA6ADF6A3E2A070E3E64DF
:101C3000F1D7070C010ECF6EF30ECE6ED16AD06ACB
:101C4000180ECD6ECC6ACD80AF82F28CF28E12006F
:101C5000A468390EA86E140EA76EA88EAA96A9863F
:101C6000F28CF28EAA96140C4F0EC86ECA6AC16A24
:101C7000020EC06EB098AF98B198C184020C310EBC
:101C8000D66ED56A030ED76EB090AF80F28CF28E0E
:101C9000030C1E0000000A0A0A01A4012C01010124
:101CA00001011E083E6E3EC06FF03EC070F03EC0A7
:0D1CB0006EF0120000000000000D052C0178
:020000040030CA
:04000000FCFF27FFDB
:00000001FF
