:0400000019EF00F004
:060008007D8224ED07F0EB
:100018007D80E0CF3CF0B0B802D0AAA402D0B0985E
:0E002800AA943CC0E0FF7D90100067EF0DF041
:10010000003F065B4F666D7D077F6F00F5EC0EF0DC
:1001100055EC0FF019EC0FF033EC0FF04AEC0FF048
:1001200008EC0FF0C5EC0AF0060E7B6E280E19ECF9
:1001300007F0416A426A090E1EEC0BF0E80E3D6EB4
:10014000030E3E6E3F6A406A416A010E426E0E0E19
:100150001EEC0BF0F7EC0DF056C0D7F057C0D8F0FE
:1001600071500001D75D7250D8590BE3320E7124E3
:10017000656E000E7220666E6550D75D6650D85968
:1001800004E3D7C071F0D8C072F013EC05F003E2BD
:10019000706A786A19D018EC05F004E2010E706EEE
:1001A0000F0E11D01DEC05F004E2020E706E280E49
:1001B0000AD022EC05F004E2030E706E410E03D06B
:1001C000040E706E550E786EF7EC0DF04B0E565C0B
:1001D000010E575809E286A807D0010E726E3B0E39
:1001E000716E706A35EC05F0280E19EC07F0416A63
:1001F000020E426E0D0E1EEC0BF0640E19EC07F0B1
:10020000416A030E426E0C0E1EEC0BF0460E19EC0A
:1002100007F0416A040E426E0B0E1EEC0BF0C80E86
:1002200019EC07F0416A050E426E0F0E1EEC0BF042
:100230002C0EB8DB2CEC05F0100E1EEC0BF0010EB2
:100240000001D66F2C0ED56F27EC05F08B5114E012
:100250008C5112E0F29EF29C8C6BF28EF28C860E28
:100260005E6E31EC06F000018D5147E08E2B8D5112
:100270008E1943E18B6B41D0945114E0955112E0FB
:10028000F29EF29C956BF28EF28C8F0E5E6E7CEC81
:100290000CF00001965131E0972B965197192DE102
:1002A000946B2BD09D5114E09E5112E0F29EF29C73
:1002B0009E6BF28EF28C980E4A6E8EEC08F0000166
:1002C0009F511BE0A02B9F51A01917E19D6B15D0EA
:1002D000A65113E0A75111E0F29EF29CA76BF28E9B
:1002E000F28CA10E5E6EDFEC07F00001A85105E074
:1002F000A92BA851A91901E1A66BAF5114E0B05187
:1003000012E0F29EF29CB06BF28EF28CAA0E5C6E42
:100310007FEC0AF00001B15131E0B22BB151B219BA
:100320002DE1AF6B2BD0B85114E0B95112E0F29E21
:10033000F29CB96BF28EF28CB30E3D6E32EC0DF086
:100340000001BA511BE0BB2BBA51BB1917E1B86BC6
:1003500015D0C15113E0C25111E0F29EF29CC26B64
:10036000F28EF28CBC0E646EACEC09F00001C3514D
:1003700005E0C42BC351C41901E1C16B2E5019E033
:100380002E6ACE5113E0640ECE610AD0CFC0B9FF01
:10039000BA6A9B0EB86EAA9AA98AF28CF28EB884B9
:1003A0008090AA96A986010E2D6E03D08080A99612
:1003B000AA96225001E181D28B808B828B848B861E
:1003C0008B888B8A8A8A8A888A868A84BD6A040E88
:1003D000C16E020EC06E2B5001E13AD22B6AFBDADD
:1003E000E7DA1BDBD36F6650D46FF8DAE1DA15DB9E
:1003F000D56F6650D66F010ED06FFE0ED55D0F0E15
:10040000D65901E225D2010E196ECE6BA996AA9695
:100410001FD26A5001E14BD20A0E6A6004D0BD803F
:10042000BE686A381EDB82908B9001A002D0828267
:100430008B9201A202D082848B9401A402D0828686
:100440008B9601A602D082888B9801A802D0828A5E
:100450008B9A01AA02D0818A8A9A01AC02D0818843
:100460008A9801AE02D081868A960BA020D2818420
:100470008A941DD26A5001E11AD20A0E6A6003D032
:10048000BD82C7DAEEDA82928B9202A002D082801D
:100490008B9002A202D082848B9402A402D0828626
:1004A0008B9602A602D082888B9802A802D0828AFC
:1004B0008B9A02AA02D0818A8A9A02AC02D08188E1
:1004C0008A9802AEF4D181868A96F1D16B5001E10F
:1004D000EED10A0E6B6005D0BD82C00EBE6E6B38C9
:1004E000C0DA82928B920BA2E2D1C1D7675001E1B0
:1004F000DED10A0E676003D0BD84BE6877DA8294CD
:100500008B9403A002D082808B9003A202D08282BF
:100510008B9203A402D082868B9603A602D0828897
:100520008B9803A802D0828A8B9A03AA02D0818A70
:100530008A9A03AC02D081888A9803AE02D0818661
:100540008A960BA4B4D193D7675001E1B0D10A0EBB
:10055000676004D0BD86C00EBE6E48DA82968B9668
:1005600004A002D082808B9004A202D082828B925F
:1005700004A402D082848B9404A602D082888B9833
:1005800004A895D1828A8B9A92D1685001E18FD1CB
:100590000A0E686005D0BD86C00EBE6E68382BDAC4
:1005A00082968B9604AC02D081888A9804AE02D0E1
:1005B00081868A960BA67BD15AD76A5001E177D102
:1005C0000A0E6A6003D0BD8624DA15DA82968B960D
:1005D00004AA6DD1818A8A9A6AD1685001E167D1F3
:1005E0000A0E686003D0BD88BE68FBD982988B98DC
:1005F00005A002D082808B9005A202D082828B92CD
:1006000005A402D082848B9405A602D082868B96A4
:1006100005A802D0828A8B9A05AA02D0818A8A9A7A
:1006200005AC02D081888A9805AE02D081868A9670
:100630000BA83DD11CD7685001E139D10A0E686082
:1006400004D0BD8AC00EBE6ECCD9829A8B9A06A009
:1006500002D082808B9006A202D082828B9206A466
:1006600002D082848B9406A602D082868B9606A83E
:1006700002D082888B9806AA02D0818A8A9A06AC18
:1006800002D081888A9806AE12D11DD7695001E147
:100690000ED10A0E696005D0BD8AC00EBE6E6938E3
:1006A000AED9829A8B9A0BAA02D1E1D6695001E1A8
:1006B000FED00A0E696004D0BD86BE6A69389BD937
:1006C000819A8A9A07A002D082808B9007A202D0DA
:1006D00082828B9207A402D082848B9407A6E7D0F3
:1006E00082868B96E4D06A5001E1E1D00A0E6A60FE
:1006F00004D0BD86BE6A6A387ED9819A8A9A07A8D4
:1007000002D082888B9807AA02D0828A8B9A07AC83
:1007100002D081888A9807AECAD0D5D6675001E149
:10072000C6D00A0E676003D0BD86BE6A5FD9819AC3
:100730008A9A0BACBCD09BD6685001E1B8D00A0EA7
:10074000686004D0BD883F0EBE6E4BD981988A98F0
:1007500008A002D082808B9008A202D082828B9265
:1007600008A402D082848B9408A602D082868B963D
:1007700008A802D082888B9808AA02D0828A8B9A15
:1007800008AC02D0818A8A9A08AE02D081868A9605
:100790000BAE8DD06CD6685001E189D00A0E68602E
:1007A00003D0BD8ABE6A1DD981968A9609A002D05F
:1007B00082808B9009A202D082828B9209A402D0FF
:1007C00082848B9409A602D082868B9609A802D0D7
:1007D00082888B9809AA02D0828A8B9A09AC02D0AF
:1007E000818A8A9A09AE02D081888A980CA05FD04B
:1007F0003ED667505CE00A0E676005D0BD887F0E6C
:10080000BE6E6738FCD881948A940AA002D0828098
:100810008B900AA202D082828B920AA402D0828498
:100820008B940AA602D082868B960AA802D0828870
:100830008B980AAA02D0828A8B9A0AAC02D0818A4B
:100840008A9A0AAE02D081888A980CA230D03BD610
:10085000215001E1DED5010A01E10CD6030A01E1D4
:1008600035D6010A01E142D6070A01E16DD6010A37
:1008700001E18BD6030A01E1A0D6010A01E1ADD660
:100880000F0A01E1D8D6010A01E100D7030A01E10C
:100890000DD7010A01E127D7070A01E13FD7010A75
:1008A00001E14AD7030A01E176D7010AA2E0212A31
:1008B0000F0E216401D0216A226AD05101E1C6D411
:1008C0002A2A020E2A1834E1C50ED55D090ED65922
:1008D0001FE3D5C03DF0D6C03EF03F6A406A780EB7
:1008E000416E426A436A446A4CEC0EF06BD8D3C046
:1008F0004DF0D4C04EF04F6A506AF7EC0CF049C08E
:1009000073F04AC074F00D0E735E000E745A04D07A
:10091000010E746E360E736E74500AE1C90E735C6C
:1009200007E2745003E1B40E735C02E36CD89DD807
:10093000040E2A6434D07C503D6E3E6A3F6A406AA1
:10094000E00E416E930E426E040E436E446A4CEC10
:100950000EF038D873C03DF074C03EF03F6A406A74
:1009600073C041F074C042F0436A446A4CEC0EF02C
:100970003DC04DF03EC04EF03FC04FF040C050F083
:10098000F7EC0CF049C06CF04AC06DF04BC06EF053
:100990004CC06FF0010E756E2A6A0001D06B000129
:1009A000D06B54D43D6E010E3E6E3F6A406A010C1E
:1009B000A16EAA94A994A182A1B2FED7AA94A35031
:1009C0000F0B12003DC049F03EC04AF03FC04BF053
:1009D00040C04CF01200600EA06E390C600EA06E8C
:1009E000150C6838E842F80BC26E12006738E8420E
:1009F000F80BC46E1200E842F80BC46E1200E84215
:100A0000F80BC26E1200010E726E360E716E706AB5
:100A10001200C00EBE6E6A381200666E656AA25081
:100A20006510000112003E0E715C010E725812003A
:100A30005A0E715C010E72581200730E715C010E39
:100A400072581200870E715C010E72581200000E6F
:100A500087B2010E386E1200030E416E7BC042F069
:100A6000030CE842F80BC66E12000001CE6B2F6A31
:100A700012000A0E10600CD01050E6D8F5CF01F02D
:100A8000100407E1060E111804E1300E016E01D0CA
:100A9000016A12B002D0019E01D0018E13B002D0C3
:100AA0000B9001D00B800A0E116005D01150CCD8EC
:100AB000F5CF02F001D0026A12B002D0029E01D03E
:100AC000028E14B002D00B9201D00B820D5003E1C4
:100AD000406A416A02D0416A406840C003F00DB0EC
:100AE00002D00B9401D00B840D5003E01F0E046E56
:100AF00001D0046A15B002D0049A01D0048A080E0D
:100B00000F6001D003D03D6A3D2A01D03D6A3D46C9
:100B1000A3D8F70B3D180B6E080E0F6405D0048E9A
:100B20000A0E0F1801E1048C0F500A083D6E3E6852
:100B30003D2A02D0D8903E363D2EFCD73E50056E61
:100B4000010E0F6402D00B8801D00B980F5014E0F7
:100B5000080E0F600FD00F5007083D6E3E683F6AC9
:100B60003D2A03D03F343F323E323D2EFBD73E502C
:100B7000066E03D0066801D0066A050E176001D024
:100B800003D03D6A3D2A01D03D6A3D3A3D460B50B7
:100B90003D18DF0B3D180B6E076A05D007800782F2
:100BA0000784078611D01750010AFBE0030AF8E01A
:100BB000010AF5E0070AF2E0010AF0E005D0078833
:100BC000078A078C078E09D01650010AFBE0030A3A
:100BD000F8E0010AF5E0070AF2E00D5003E03D6A93
:100BE0003D2A01D03D6A3D3A37D8BF0B3D180B6E08
:100BF0000E5003E1426A436A02D0436A426842C02F
:100C000008F00EB002D00B9E01D00B8E0E5003E107
:100C1000446A456A02D0456A446844C009F00EB08F
:100C200002D00C9001D00C800D5003E1466A476A57
:100C300003D0000E476A466846C00AF00DB002D0E5
:100C40000C9201D00C821200010F3D6E3DC0F6FFE8
:100C5000010EF76E080012003D463D460B503D1850
:100C6000120028502BE186B886BA28D027EC05F070
:100C7000385003E0010E196E36D03BEC0CF05F6E7D
:100C80001D0E5F6003D0010E186E2DD086BA2BD0DA
:100C9000705009E0F7EC0DF0370E565C010E575816
:100CA00002E203EC05F02F6A010E756E276A010E51
:100CB000256E1B6A010E1C6E1A6A15D0280413E1FA
:100CC00086B811D05E5070EC0AF0000EDF6E265030
:100CD0000AE0266A320EADD8490E416E7BC042F062
:100CE000110E1EEC0BF0000E86B8010E286E185087
:100CF00011E0196A266A1C6A186A010E1A6E000150
:100D0000CE6B7B509BD8DF6A320E93D82AEC09F069
:100D10001EEC0BF0195016E0186AC5EC0AF0266AB2
:100D2000196A1C6A0001CE6B010E1B6E7B5086D8BF
:100D3000DF6AFA0E7ED80A0E416E7BC042F0060EC4
:100D40001EEC0BF01B5002E11A5002E0266A120062
:100D500086B886BA63D0375061E127505FE12550ED
:100D600006E0256A87A203D0010E196E010C7050AF
:100D700011E10001CE6B266A2F50D8A41200010E9B
:100D80002F6EFA0E56D8140E416E7BC042F00A0E3A
:100D90001EEF0BF0010E266E755019E0756A6C504F
:100DA0006D106E106F1009E06CC060F06DC061F0E6
:100DB0006EC062F06FC063F005D01E0E606E616A97
:100DC000626A636A60C0CEF00001CE05CF6F1C502E
:100DD00009E01C6A320E2DD8416A7BC042F0040E35
:100DE0001EEC0BF05E5070EC0AF0DF2A5E5070ECE7
:100DF0000AF0F90EDF64F90C5E5070EC0AF0DF6A5D
:100E00000001CE6B266AFA0E14D80A0E416E7BC022
:100E100042F01EEC0BF0010E276E010C010E756EF8
:100E2000266A5E5070EC0AF0000EDF6A0001CE6B9D
:100E300012003D6E3E6A3F6A406A1200090DF3508F
:100E40008B0FD96EDA6A12000600AAA60BD0A8BCD6
:100E5000A9A607D092908080010E186E0001CE6B7B
:100E60009280AA96AFB2B0A274D0B09200018B511A
:100E70000CE08907D8A08A0789518A1106E1010E82
:100E80008C6F87C089F088C08AF094510CE092077B
:100E9000D8A093079251931106E1010E956F90C06F
:100EA00092F091C093F09D510CE09B07D8A09C0755
:100EB0009B519C1106E1010E9E6F99C09BF09AC058
:100EC0009CF0A6510CE0A407D8A0A507A451A51139
:100ED00006E1010EA76FA2C0A4F0A3C0A5F0AF5118
:100EE0000CE0AD07D8A0AE07AD51AE1106E1010E82
:100EF000B06FABC0ADF0ACC0AEF0B8510CE0B6070F
:100F0000D8A0B707B651B71106E1010EB96FB4C04A
:100F1000B6F0B5C0B7F0C1510CE0BF07D8A0C0070C
:100F2000BF51C01106E1010EC26FBDC0BFF0BEC00F
:100F3000C0F0CA510CE0C807D8A0C907C851C911F0
:100F400006E1010ECB6FC6C0C8F0C7C0C9F0010EE4
:100F50002E6EAFB0B0A00DD0B090010E226E2D0459
:100F600008E12C2A040E2C6404D0010E2B6E2C6A8E
:100F70002D6AAABAA9AA05D0AA9AA996AA9680808B
:100F8000B894A9BAB0A80AD0B0981D4A1E2A1D501C
:100F90001F1804E11E50201801E1C194ADAAADBE96
:100FA00002D0ADAC0AD0AD9AAD9EAD9C8F988F9A11
:100FB0009092919CAC9AAC9CAC9E7D921100365064
:100FC00014E086BA12D02C0ED2EC04F0060E416E5C
:100FD0007BC042F0020E1EEC0BF0356AF7EC0DF010
:100FE00056C071F057C072F00DD086AA0BD03650A3
:100FF00009E15E5070EC0AF0DF6A346A86B202D012
:10100000010E796E000E86BA010E366E355007E07D
:101010005E5070EC0AF0000EDF6A346A120086AA95
:1010200052D086A216D0010E356E040E706EF7EC0B
:101030000DF0870E565C010E5758D8A01200880E8E
:101040003D6E130E3E6E3F6A406A2CEC05F01EEFBB
:101050000BF079500FE07B501EEC07F0DF5005E0FD
:101060007B5056D8100EDE1805E1796A75EC0AF04F
:101070001EEC0BF05E5070EC0AF0DF2A5E5070EC54
:101080000AF0F90EDF6425D05E5070EC0AF0DF6ADA
:101090000B0E341809E0170E341806E0230E34182E
:1010A00003E02F0E341805E15B0E786002D0050EC8
:1010B0007826342A2F0E34640CD0346A030E706004
:1010C00008D0702A06D0346A5E5070EC0AF0000E28
:1010D000DF6E86A819D0375017E1385015E11D0E84
:1010E0007A6412D0705010E0234A242A900E235CB8
:1010F000010E2458D8A01200236A246A090E7864CD
:10110000090C050E785E050C7050D8B4786A120090
:10111000090DF350860FD96EDA6A12007B501EEC6F
:1011200007F0DF5006E07B5088EC08F0050EDE1873
:1011300001E0306A77501FE088BC1DD082D80AE0F9
:10114000375008E1305006E07C2A1E0E7C6402D045
:10115000050E7C6E325003E1010E326E02D0312A50
:10116000336A6FD806E0320E19EC07F073D81EEC24
:101170000BF0010E766E000E88BC010E776E88BCF7
:1011800029D05FD82CE037502AE1305028E04A506F
:1011900070EC0AF0DF2A4A5070EC0AF0050EDF64AA
:1011A0001ED04A5070EC0AF0DF6A4BD806E0320ECF
:1011B00019EC07F04FD81EEC0BF0765006E07C2AB5
:1011C0001E0E7C6402D0050E7C6E1E0E7C1807E19C
:1011D000766A05D04A5070EC0AF0000EDF6E32508D
:1011E00007E0332A0C0E33640C0C326A336A1200A7
:1011F000310403E1010E306E21D0030E31641ED0A4
:1012000020D81CE030501AE137500DE1010E376E46
:10121000320E19EC07F0640E416E7BC042F0070EEF
:101220001EEC0BF00BD0376A320E19EC07F02B0EC8
:10123000416E7BC042F0080E1EEC0BF0336A316A3F
:1012400012007B50090DF350860FD96EDA6A040E36
:10125000DE181200490E416E7BC042F0050C4A5068
:1012600070EC0AF0160EDF602ED04A5070EC0AF0D7
:10127000DF500EE10D6A0E6A0A0E0F6E010E126E3D
:10128000136AF2EC0CF0176A166A0A0E27EC0FF0DC
:101290004A5070EC0AF0DFB048D07A500FE0640E8C
:1012A0003D6E7A50AFEC0EF0106E0A0E416E3D6E40
:1012B0007A50AFEC0EF0E2EC0EF01ED0106A116A1C
:1012C00039EC05F032D04A5070EC0AF02B0EDF609A
:1012D00015D04A5070EC0AF0160EDE1803E1126ABF
:1012E000010E136E4A5070EC0AF0DFB01ED030D8F9
:1012F000AFEC0EF0106E27D8116EE2D74A5070ECAA
:101300000AF0DFA009D024D8AFEC0EF0106E1BD885
:10131000116E166A39EC05F04A5070EC0AF0DF5095
:101320004B6E4B50340827EC0FF04A5070EC0AF02B
:10133000340EDE18D8B486AA120086B2120075ECFC
:101340000AF01EEF0BF01050F60DF3507C24120043
:101350000A0E3D6E7C50120048D064C04AF02FEF58
:1013600009F064C048F025EF0EF064C048F0C9EF02
:101370000EF064C048F072EF0EF064C048F06DEFFC
:101380000BF064C04AF0BBEF0CF064C048F09AEF79
:101390000DF064C04AF01DEF0AF064C04AF0CFEFD0
:1013A0000AF064C05EF031EF06F064C048F092EFDE
:1013B0000EF064C05CF07FEF0AF064C05EF0DFEF17
:1013C00007F064C04AF08EEF08F064C05EF07CEF76
:1013D0000CF064C03DF032EF0DF064C048F0F9EF5E
:1013E0000BF064C048F0B6EF0BF06450D96EDA6AC7
:1013F000DF50B3E0010AB5E0030AB7E0010AB9E043
:10140000070ABBE0010ABDE0030ABFE0010AC1E030
:101410000F0AC3E0010AC5E0030AC7E0010AC9E0F8
:10142000070ACBE0010ACDE0030ACFE0010AD1E0D0
:101430001F0AD3E0010AD5E012004A5051D80A0E23
:10144000DF6015D04A504CD8DF5009E115EC0BF0A5
:10145000146E38C015F0176A000E27EC0FF04A50D2
:101460003FD8DF504B6E4B2827EC0FF01CD04A5072
:1014700037D81F0EDF6001D016D04A5031D8290E60
:10148000DF600BD04A502CD8DF504B6E4B502808F1
:1014900027EC0FF00A0E6B6E06D04A5021D8630E6F
:1014A000DE1801E16B6A4A501BD8DFB00BD04A50FE
:1014B00017D8280EDF6006D0A8EC09F0AFEC0EF0CC
:1014C0000CEC0BF039EC05F04A500AD8630EDE182C
:1014D000D8B486AA120086B2120007D81EEF0BF00D
:1014E000D96EDA6A080ED926080CF40E3D6E010E8C
:1014F0003E6E3F6A406A416A7BC042F0010C80B098
:1015000086B809D0000E87B2010E391803E0010E2B
:101510003B6E3A6A3AD83B50D8B412003BD83BEC09
:101520000CF0DF6E37D8DF50010ED8A4000E386EF5
:101530003A2A050E3A64050C0001835182C05DF021
:101540005E6A5D26000E5E2284515D26000E5E22DC
:1015500085515D245F6E000E5E20606E5FC05DF0A1
:1015600060C05EF0D8905E325D32D8905E325D32FF
:101570005D507A6E3B6A320E19EC07F0350E416E03
:101580007BC042F0000E1EEF0BF0000E87B2010E82
:10159000396E12003A50800FD96EDA6A12004A5042
:1015A00070EC0AF00A0EDF6014D04A5070EC0AF0BA
:1015B000DF5006E13AD8AAEC0EF0000E27EC0FF04F
:1015C0004A5070EC0AF0DF504B6E4B2827EC0FF0BE
:1015D00009D04A5070EC0AF02A0EDE1803E1000E22
:1015E00027EC0FF04A5070EC0AF0DFB005D0A8EC01
:1015F00009F0AFEC0EF010D839EC05F04A5070EC61
:101600000AF02A0EDE18D8B486AA120086B212009A
:1016100075EC0AF01EEF0BF0106E1050F60DF35043
:101620007C24116E70C016F01200010E0D6E0E6E4D
:101630000A0E0F6E126A010E136E010C476E3DC04A
:1016400043F03EC044F03FC045F040C046F0040EB9
:1016500005D0D8904632453244324332E82EF9D78D
:1016600043C048F044C049F048504910D8A442BE95
:101670001200F29EF29C425088EC08F047C0DFFF57
:101680004250090DF350870F1AD8090DF350890FF6
:1016900016D81EEC07F01BD88C0FD96EDA6A17D853
:1016A0008D0FD96EDA6A41C0DFFF4250090DF35049
:1016B0008E0FD96EDA6ADF6AF28EF28C000CD96E68
:1016C000DA6A48C0DEFF49C0DDFF42501200010E59
:1016D000DF6E4250090DF3501200485070EC0AF0D2
:1016E000DF500DE1010EDDEC0EF0126A136A146A90
:1016F000156A166A0A0E27EC0FF0C5EC0DF048507B
:1017000070EC0AF00A0EDF6007D0485070EC0AF067
:10171000DF50496E492807D0485070EC0AF0DF507E
:10172000496E49501308676E485070EC0AF0DF505C
:1017300006E0485070EC0AF00A0EDE1808E1172A9D
:10174000050E176402D0010E176E39EC05F04850F3
:1017500070EC0AF0DF2A485070EC0AF0130EDF64D8
:10176000130C485070EC0AF0DF6A000C485070EC23
:101770000AF00A0EDF601ED0485070EC0AF0DF500D
:1017800007E115EC0BF0F2EC0CF00A0E686E6B6AD8
:10179000485070EC0AF0DF50496E49286A6E6AC002
:1017A00067F0485070EC0AF0DF50496E4950090864
:1017B000696E11D0485070EC0AF03F0EDF6001D026
:1017C0000AD0485070EC0AF0DF50496E4950480882
:1017D00027EC0FF0696A485070EC0AF0DFB039EF7F
:1017E00005F0A8EC09F0AFEC0EF00CEC0BF039EFC3
:1017F00005F0485070EC0AF0DF5009E1010EDDEC15
:101800000EF02BD827EC0FF032D839EF05F0485006
:1018100070EC0AF0DE0405E1000E27EC0FF039EF62
:1018200005F0C5EC0AF0C9EC0DF000F0F5EC0EF097
:1018300055EC0FF0280EE82EFED719EC0FF04AEC0D
:101840000FF033EC0FF0680E496EE40EE82EFED771
:10185000492EFCD700D039EF05F0010E126E136E41
:10186000146E156E040E166E050E176E0A0C080E19
:10187000106E116E080C81900D0EE82EFED700F050
:10188000EEEC04F0D8EC04F0576E566AA2505612F3
:10189000000E56C058F057C059F059BEFF0E5A6E90
:1018A0005B6E818058C03DF059C03EF05AC03FF099
:1018B0005BC040F0FE0E416E010E426E436A446A08
:1018C0004CEC0EF0E2EC04F05850FF084D6E0F0E99
:1018D00059544E6E000E5A544F6E000E5B54506EAB
:1018E000F7EC0CF049C058F04AC059F04BC05AF020
:1018F0004CC05BF05850120080B086BA120086B817
:1019000012007B501EEC07F0DF50D8A41200F7EC59
:101910000DF056C061F057C062F07150615C7250BA
:1019200062580BE3320E71245F6E000E7220606EFF
:101930005F50615C6050625804E361C071F062C046
:1019400072F013EC05F002E2706A120018EC05F078
:1019500003E2010E706E010C1DEC05F003E2020EB5
:10196000706E020C22EC05F003E2030E706E030CA5
:10197000040E706E040C4A5070EC0AF03F0EDF60EB
:101980000DD04A5070EC0AF0DF5011E115EC0BF06D
:1019900029D8176A0A0E27EC0FF009D04A5070ECCC
:1019A0000AF0DF504B6E4B50480827EC0FF04A50BE
:1019B00070EC0AF0DFB006D0A8EC09F0AFEC0EF046
:1019C0000CEC0BF039EC05F04A5070EC0AF0480EC4
:1019D000DE18D8B486AA120086B2120075EC0AF09E
:1019E0001EEF0BF037C014F038C015F01200516A2A
:1019F000526A536A546A4D504E104F10501029E0ED
:101A0000010E556E06D0D8904D364E364F365036B4
:101A1000552A50AEF8D7D8905136523653365436F0
:101A20004D50495C4E504A584F504B5850504C58AE
:101A300009E34D50495E4E504A5A4F504B5A505050
:101A40004C5A5180D89050324F324E324D32552E32
:101A5000E2D751C049F052C04AF053C04BF054C0D5
:101A60004CF012007B501EEC07F0DF502BE13D5094
:101A700070EC0AF0DF2A3D5070EC0AF0180EDF64BB
:101A8000180C3D5070EC0AF0DF6AC9EC0DF000F064
:101A9000F5EC0EF055EC0FF0280EE82EFED719EC01
:101AA0000FF04AEC0FF033EC0FF0020E3F6E040E15
:101AB0003E6EBA0EE82EFED73E2EFCD73F2EFAD74A
:101AC00000D012003D5070EC0AF0DF6A000CBE0E30
:101AD000F66E1E0EF76E000EF86E00EECEF010EEF3
:101AE00009F00900F5CFEEFFE550E150FAE17E0E76
:101AF000F66E1E0EF76E000EF86E00EE67F010EE3A
:101B000016F00900F5CFEEFFE550E150FAE100EEE6
:101B100080F04E0EEE6AE806FDE100EE01F03B0EAD
:101B2000EE6AE806FDE17D907D92000EF86E000100
:101B300086EF00F0485070EC0AF0DFA007D01AD80A
:101B4000156A20D827EC0FF020D807D013D8010E43
:101B5000156E18D827EC0FF0F7D7485070EC0AF044
:101B6000090EDE1802E039EF05F0000E27EC0FF049
:101B700039EF05F0010E0D6E0E6A0F6A126A136AD4
:101B8000146A1200166A176A0A0C0A0E106E116E99
:101B90000A0CBD6A27D883681FD8926ACD90C19479
:101BA000D390A49CA89EA69EA190300E896E020E92
:101BB0008A6E400E8B6E8F888F8A9082918CAD9A40
:101BC000AD9CAD9EAC8AAC8CAC8EF28CF28E070EC6
:101BD000D46E030000F0070C8468BF0E856EEF0E14
:101BE000946EEF0C010E806E816E826A1200EBEC37
:101BF00004F0D8EC04F0596E586AA2505812000E46
:101C000058C05AF059C05BF05BBEFF0E5C6E5D6E53
:101C1000496A800E4A6E070E4B6E4C6A5AC04DF0F0
:101C20005BC04EF05CC04FF05DC050F0F7EC0CF0C4
:101C300049C05AF04AC05BF04BC05CF04CC05DF04C
:101C40005AC056F05BC057F01200485070EC0AF0D2
:101C5000DF500AE10D6A0E6A126AF2EC0CF0136AA8
:101C6000C2EC0DF027EC0FF0485070EC0AF0010EBA
:101C7000DF6E172A050E176402D0010E176E0A0ECA
:101C80003D6E7850AFEC0EF0106E1050F60DF35024
:101C90007824116E39EF05F0456A466A476A486A4A
:101CA0003DA008D04150452642504622435047228D
:101CB00044504822D8904136423643364436D89074
:101CC00040323F323E323D323D503E103F104010D8
:101CD000E7E145C03DF046C03EF047C03FF048C098
:101CE00040F01200485070EC0AF0DF5011E10D6A2C
:101CF0000E6A0F6A126A136AF2EC0CF0040E166E8A
:101D0000176A0A0E27EC0FF0C5EC0DF039EF05F05D
:101D1000485070EC0AF0020EDE18D8A41200000E33
:101D200027EF0FF0485070EC0AF0DFA005D0000E4E
:101D300027EC0FF039EF05F015EC0BF00BD80A0E7D
:101D400027EC0FF0A8EC09F0AFEC0EF00CEC0BF068
:101D500039EF05F0146A38C015F0176A12003E6EAC
:101D6000406A3D5014E0010E3F6E03D0D8903D36DE
:101D70003F2A3DAEFBD7D89040363D503E5C03E352
:101D80003D503E5E4080D8903D323F2EF4D74050CB
:101D90001200485070EC0AF0DFA005D0000E27ECCE
:101DA0000FF039EF05F0010E08D82DEC0CF027EC00
:101DB0000FF037EC0CF039EF05F00D6E0E6E0A0ED9
:101DC0000F6E0A0C426E080E436E446AD89042347D
:101DD0004434446ED89042364150445C02E3415052
:101DE000445E432EF3D744501200730EF06EF16A36
:101DF000F2EC0DF0FE0E896E8A6E8B68FD0E836E1E
:101E0000ECEC0DF0010E926ED36EB668AB9412003E
:101E10003D6A3D501EEC07F0DF6A3D50090DF3505E
:101E20008C0FD96EDA6ADF6A3D2A070E3D64F1D75E
:101E3000070C010ECF6EF30ECE6ED16AD06A180E6B
:101E4000CD6ECC6ACD80AF82F28CF28E12003D6EE8
:101E50003DC067F03DC068F03DC069F03DC06AF02C
:101E60003DC06BF01200A468390EA86E140EA76E68
:101E7000A88EAA96A986F28CF28EAA96140C0A0A4B
:101E80000A0A0A1E00000001A4012C0101010150F0
:101E9000011E06084F0EC86ECA6AC16A020EC06EE5
:101EA000B098AF98B198C184020C310ED66ED56A45
:101EB000030ED76EB090AF80F28CF28E030C000050
:071EC0000000000D052C01DC
:020000040030CA
:04000000FCFF27FFDB
:00000001FF
