:0400000013EF00F00A
:060008007E8290ED06F07F
:100018007E80E0CF01F001C0E0FF7E901000AEEFDF
:020028000FF0D7
:1002000000282828280007080C1011161A1C282876
:10021000282828282801070A0C2813171A1D28281F
:10022000282828282800070B0E281417191B28280F
:10023000282828282801070A0F281517191B2828FD
:10024000282828282800070A281114181B1C2828E9
:10025000282828282800080A281213181B1D2828D7
:10026000282828282801090C0E2814181C1E2828C4
:10027000282828282800090D0F2816191E1E2828AE
:100280002802122232425262720313233343536311
:10029000730D1D2D3D4D5D7D6D80336A0000C1C520
:1002A000000054040CE18AB60AD0695008E1522AD1
:1002B000020E526404D0532A010E5316526A54504F
:1002C00010E18AA60ED02BEC0BF089B002D089A2E7
:1002D00006D0010E636E6F6A6E6A010E596E53810D
:1002E0005383000E8AB6010E546E630402E062046A
:1002F0001BE159500BE0030E7A6EBCD997D9C0D9D7
:1003000090D90A0EAFD9D1EC0CF0596AC6D9010EBA
:10031000046E4FEC10F0E80604E1636A626A010EB5
:10032000726E6F6A6E6A1200555008E0B6D9046AA0
:100330004FEC10F0E806F5E1556AF1D78AB688B8B7
:10034000D4D0615076E19C0E026E3F0E036E060E15
:10035000046E056ADEC006F0DFC007F0E0C008F0FA
:10036000E1C009F073EC0FF002C03CF003C03DF0B7
:1003700004C03EF005C03FF01E0E3C26000E3D229C
:100380003E223F223F503E1009E1190E3C5C010E17
:100390003D5804E26F6A6E6A2CEF0EF03CC002F02A
:1003A0003DC003F03EC004F03FC005F03CC006F085
:1003B0003DC007F03EC008F03FC009F04CEC11F022
:1003C00002C03CF003C03DF004C03EF005C03FF069
:1003D00069501FE1990EF66E020EF76E0DD973EC9F
:1003E0000FF056D93AD908D973EC0FF002C045F096
:1003F00003C046F0530416E147C03AF048C03BF052
:1004000045C047F046C048F03AC045F03BC046F012
:1004100009D023D9F1D873EC0FF03AD947C045F091
:1004200048C046F047C06FF045C06EF07FEC10F05A
:1004300002D06F6A6E6A72502EE07A6A1BD92BD096
:10044000725007E06D6AF2D8030ECBD8D1EC0CF0F5
:10045000726A6750F3D825E1020E08D9FBD8E1D8BB
:10046000150E00D9D1EC0CF01CD06750E7D819E17B
:10047000010E6D6E020E7A6E030EB3D8D1EC0CF045
:1004800010D06750DBD80DE16D6A7A6A030EA9D8E7
:10049000D1EC0CF006D07A50D3E0010AE6E0030A72
:1004A000F0E03850D2D8DF2A3850CFD8C70EDF64FA
:1004B00083D06F6A6E6A695003E1C80EE4D806D033
:1004C000040E00018027010E8123000E8223832366
:1004D0003850BBD8DF6A010E556EA8D8D1D8A1D844
:1004E000140EC0D8D1EC0CF067D06F6A6E6A6950F8
:1004F00007E13850AAD8DF50C6D8822383233BD0E7
:10050000660E116EA60E126E3F0E136E38509DD8F9
:10051000DF501CEC12F00AC00EF00BC00FF00CC044
:1005200010F00CEC0CF00EC020F00FC021F010C049
:1005300022F080C00AF081C00BF082C00CF083C0B2
:100540000DF072EC11F00AC01DF00BC01EF00CC0D3
:100550001FF03FEC08F01DC029F01EC02AF01FC09C
:100560002BF02EEC0DF029C080F02AC081F02BC0BA
:1005700082F02CC083F0385068D8DF6A010E726EAA
:1005800017D067505BD818E1020E70D863D849D8ED
:10059000150E68D8D1EC0CF00FD067504FD80CE195
:1005A000010E6D6E030E7A6E1CD8D1EC0CF004D0E7
:1005B0007A50E7E0010AF1E000018351821106E17F
:1005C000D40E805D300E8159D8A01200806B816BF3
:1005D000826B836B7D5003E1010E6B6E010C7D0617
:1005E0001200026E320E036E046A056A066A280E55
:1005F000076E67C008F0010C0900F5CF02F0090092
:10060000F5CF03F00900F5CF04F00A00F5CF05F0AF
:100610003CC006F03DC007F03EC008F03FC009F006
:100620001200036E046A056A066A120067500A0D1A
:10063000F3508C0FD96EDA6ADF6A12000A0DF3509C
:100640008C0FD96EDA6ADF501200D96EDA6A090EA1
:10065000D926090C040E026EFA0C9D0EF66E020EDF
:10066000F76E1200076E67C008F0010C6D6E010E88
:100670007A6E010C020E796E030E786E776E030CA3
:10068000020E026EFA0C00018027000E8123000C7E
:1006900002C047F003C048F01200030E036EF00ED4
:1006A000026EF00C106E116A020E06183BE0646ACE
:1006B000126A030E116423D00D0E116020D0125067
:1006C000010F9DD90900F550685C11E36CD90FE367
:1006D0001250010F94D90800F5CF08F00850685C5B
:1006E000096E0928190D91D9F3CFDFFF08D05BD926
:1006F00004E28BD9FA0EDF6E02D087D9DF6A112AA5
:100700000F0E116401D0116A122A7F0E1264D1D724
:10071000FA0E0101186F286F386F476F576F686FB7
:10072000786F01D0642A035012E17B0446E1010195
:10073000006B36D0FA0E606FFA0E506FFA0E406FF3
:10074000FA0E306FFA0E206FFA0E106F36D0020ECE
:10075000061821E0685021E00A0E68181EE0140E09
:1007600068181BE01E0E681801E117D0050E681806
:1007700009E00F0E681806E0190E681803E0230E52
:1007800068181BE10101006B106B206B306B406B34
:10079000506B606B12D064A0F5D7FA0E0101006FA8
:1007A0001050010AD1E0030ACDE0010AC9E0070AAE
:1007B000C5E0010AC1E0030ABDE0045019E17B0471
:1007C00001E0A6D00101016B616B516B416B316B94
:1007D000216B116B1ED0FA0E616FFA0E516FFA0E7B
:1007E000416FFA0E316FFA0E216FFA0E116F90D031
:1007F000040435E1020E06182FE0685009E00A0EE5
:10080000681806E0140E681803E01E0E68180FE161
:1008100008D90250010AE9E0030AE5E0010AE1E033
:10082000070ADDE0010AD9E0030AD5E071D0050E20
:10083000681809E00F0E681806E0190E681803E042
:10084000230E681865E10101016B116B216B316B9F
:10085000416B516B616B5CD064A0F5D7D9D7685000
:1008600009E00A0E681806E0140E681803E01E0E70
:10087000681802E1D6D80ED0050E681809E00F0EF0
:10088000681806E0190E681803E0230E681802E1E4
:100890000101016B060404E1685027080F6E02D0C5
:1008A00068C00FF00FB034D0665009E1FA0E0101B4
:1008B000116F216B316B416B516B616B24D06604FE
:1008C00005E10101116BFA0E216FF4D7020E6618D3
:1008D00006E10101116B216BFA0E316FECD7030EAB
:1008E000661804E199D8FA0E416FE6D7040E66182F
:1008F00005E192D8416BFA0E516FDFD78DD8416B6D
:10090000516BFA0E616F662A050E666401D0666A45
:10091000030E066018D0655061D8FA0EDF6E655080
:1009200007E0FF0E65240D6E0E6AFF0E0E2203D047
:100930000E6A170E0D6E0D5051D8DF6A652A170E1C
:10094000656401D0656A7B0409E00F0E681806E053
:100950001E0E681803E0050E68181BE105500DE136
:10096000FA0E01010E6F1E6F2E6F3E6F4E6F5E6F9F
:100970006E6B7E6B706B716B0CD001010E6B1E6B1E
:100980002E6B3E6B4E6B5E6BFA0E6E6F7E6F706FF2
:10099000716F7B0401E17B6A270E6818D8A41200EE
:1009A000010E7B6E010C6850076E086A1250010F31
:1009B000096E09C0F6FF020EF76E0800F5500A6EC8
:1009C0000B6A090E0A26000E0B2207500A5C0B5018
:1009D000800A0C6E0850800A0C581200810F076EB6
:1009E00007C0F6FF020EF76E0800F550086E096AA0
:1009F000000E0824D96E010E0920DA6E1200076E6F
:100A000007C0F6FF020EF76E1200000E1224D96E18
:100A1000DA6A010EDA2212000101116B216B316BCF
:100A20001200FA0E0101016FFA0C26EC11F03FECF6
:100A300012F071EC12F0D8EC10F02EEC12F09EECEB
:100A400012F0F8EC12F00F015391539385908592B8
:100A5000000E89B0010E756E000E89B2010E746E23
:100A600053815383010E026E880E036E130E046EC3
:100A7000056A066A030E076E086A010ED1EC0CF0D7
:100A8000676E010E026E280E036E046A056A066A1E
:100A9000076A010E086E020ED1EC0CF0010E026E18
:100AA000100E036E046A056A066A076A040E65EC96
:100AB00009F0020E026E280E036E046A056A066AC9
:100AC000076A040E65EC09F05A6E010E026E100EF4
:100AD000036E046A056A066A076A030E65EC09F08C
:100AE000010E026EFA0E036E046A056A066A076A50
:100AF000060E65EC09F0010E026EB80E036E0B0EC9
:100B0000046E056A066A076A050E65EC09F0010EB7
:100B1000026EFA0E036E046A056A066A076A070E19
:100B200065EC09F000018C5114E08D5112E0A192A6
:100B30008D6BA1828BC040F0860E416E8A5170ECA5
:100B40000CF000018E5105E08F2B8E518F1901E1C1
:100B50008C6B965114E0975112E0A192976BA18291
:100B600095C040F0900E416E945170EC0CF0000175
:100B7000985105E0992B9851991901E1966BA05174
:100B800014E0A15112E0A192A16BA1829FC040F09C
:100B90009A0E416E9E5170EC0CF00001A25105E0DE
:100BA000A32BA251A31901E1A06BAA5114E0AB51F0
:100BB00012E0A192AB6BA182A9C040F0A40E416EDD
:100BC000A85170EC0CF00001AC5105E0AD2BAC511C
:100BD000AD1901E1AA6BB45114E0B55112E0A19234
:100BE000B56BA182B3C040F0AE0E416EB25170EC55
:100BF0000CF00001B65105E0B72BB651B71901E171
:100C0000B46BBE5114E0BF5112E0A192BF6BA18240
:100C1000BDC040F0B80E416EBC5170EC0CF000014C
:100C2000C05105E0C12BC051C11901E1BE6BC851D3
:100C300014E0C95112E0A192C96BA182C7C040F073
:100C4000C20E416EC65170EC0CF00001CA5105E0B5
:100C5000CB2BCA51CB1901E1C86BD25114E0D3514F
:100C600012E0A192D36BA182D1C040F0CC0E416EB4
:100C7000D05170EC0CF00001D45105E0D52BD451CB
:100C8000D51901E1D26B575001E14CD7576AA850F2
:100C90000F0B446E436AA7504312000E43C0DEF0B0
:100CA00044C0DFF0DFBFFF0EE06FE16F0F011751AF
:100CB0000F0B446E436A16514312000E43C0DAF024
:100CC00044C0DBF00001DBBFFF0EDC6FDD6F0F0106
:100CD00015510F0B446E436A14514312000E43C06A
:100CE000D6F044C0D7F00001D7BFFF0ED86FD96F40
:100CF000DD51DC1105E16E0EDA5D0F0EDB5909E303
:100D0000D951D81105E16E0ED65D0F0ED759D8B066
:100D100009D7010E636E6F6A6E6A010E596E02D7B3
:100D200006009FB29EA20BD09F920F0177AD07D015
:100D30008186010E626E6F6A6E6A010E596E9FB0F7
:100D40009EA00BD09F900F0178AD07D08380010E3D
:100D5000636E6F6A6E6A010E596EA2B2A1A274D060
:100D6000A29200018C510CE08807D8A08907885115
:100D7000891106E1010E8D6F86C088F087C089F069
:100D800096510CE09207D8A093079251931106E177
:100D9000010E976F90C092F091C093F0A0510CE0BB
:100DA0009C07D8A09D079C519D1106E1010EA16FE3
:100DB0009AC09CF09BC09DF0AA510CE0A607D8A059
:100DC000A707A651A71106E1010EAB6FA4C0A6F0BC
:100DD000A5C0A7F0B4510CE0B007D8A0B107B0513E
:100DE000B11106E1010EB56FAEC0B0F0AFC0B1F009
:100DF000BE510CE0BA07D8A0BB07BA51BB1106E13F
:100E0000010EBF6FB8C0BAF0B9C0BBF0C8510CE05A
:100E1000C407D8A0C507C451C51106E1010EC96FAA
:100E2000C2C0C4F0C3C0C5F0D2510CE0CE07D8A0F8
:100E3000CF07CE51CF1106E1010ED36FCCC0CEF05B
:100E4000CDC0CFF053EC0AF0A2B0A1A010D0A29078
:100E50004D4A4E2A000184514D5C85514E5807E39E
:100E6000010E586E4D6A4E6AD78A0F016291A2B484
:100E7000A1A404D0A2949E908380C994A2B6A1A6F6
:100E800004D0A2969E928186BC949BBA9CAA03D061
:100E90009C9A010E576E9EBA9FAA0ED00F016099C0
:100EA0005F915F935E975D959E9A9E9C9E9EA19E8C
:100EB0009F9A9F9C9F9EA29E9EBC9FAC0ED00F01AE
:100EC00060995F915F935E975D959E9A9E9C9E9EB2
:100ED000A19E9F9A9F9C9F9EA29EA1BEA2AE0ED055
:100EE0000F0160995F915F935E975D959E9A9E9CBE
:100EF0009E9EA19E9F9A9F9C9F9EA29E9EBE9FAEDD
:100F00000ED00F0160995F915F935E975D959E9AF9
:100F10009E9C9E9EA19E9F9A9F9C9F9EA29E7E921B
:100F2000110088A84CD0020E776414D07A6412D0D5
:100F300067501EEC03F00EE16C500CE16D6A020E7E
:100F40006A6E030EF1EC02F0D1EC0CF0776A030E3E
:100F5000796E786E88AA06D06C5002E1010E5E6E42
:100F6000010E6C6E5E5013E05E6A060E7C6E6A6A5D
:100F7000030E776E16EC03F0070E026E080E11ECEE
:100F800003F0010E076E67C008F0D1EC0CF01950A9
:100F900025EC03F0DF2A195025EC03F0EF0EDF6497
:100FA00013D0195025EC03F0DF6A5F2A0C0E5F6442
:100FB0000BD0050E7C6001D07C2A5F6A05D01950E9
:100FC00025EC03F0DF6AF9D788B817D0605015E038
:100FD00016EC03F0080E026EFA0E11EC03F0070E89
:100FE000076E4AD8D1EC0CF0030E776E6C6ABAEC3F
:100FF0000EF00FC070F010C071F0000E88B8010E36
:10100000606E2BD067501EEC03F0D8A41200020EC5
:101010006D6E010E776E6A6A2AEC03F011EC03F034
:10102000150E0BD067501EEC03F0D8A41200010E71
:101030006D6E020E776E0FD017D8076E1DD8D1EFE8
:101040000CF088A8120067501EEC03F0D8A4120020
:101050006D6A776A020E6A6EEFD77750D3E0010AA5
:10106000E1E0030AEEE01200030E026E320E036EA0
:10107000046A056A066A280C67C008F0010C1FC0E4
:1010800023F0246A256A1E34233601E3248023508A
:10109000286E22C023F0246A256A2134233601E316
:1010A00024802350276E285009E02750285C0DE249
:1010B0002850275C236E180E236407D020C01DF033
:1010C00021C01EF022C01FF01200275009E0285056
:1010D000275C0DE22750285C236E180E236407D08E
:1010E0001DC01DF01EC01EF01FC01FF01200060E16
:1010F000266E1FBE268E22BE268C1E8E1F6A218E55
:10110000226A2750285C14E2D890203621362236F5
:1011100027062850271808E053D806E0F5D7D890BE
:101120001F321E321D32282A2750281817E0F7D701
:101130002850275C13E2D8901D361E361F3628062D
:101140002850271808E03CD806E0F5D7D89022327E
:1011500021322032272A27502818F8E126AE07D05E
:101160001D1E1E1E1F1E1D2A000E1E221F2226BC13
:101170001FD8266A1D5020261E5021221F502222D1
:1011800022AE03D015D8010E266E20C002F021C079
:1011900003F022C004F028C005F026C006F077EC6A
:1011A0000EF002C01DF003C01EF004C01FF01200BC
:1011B000201E211E221E202A000E21222222000C87
:1011C000260626C023F0070E2316070C8BB416D074
:1011D0005C0414E15B040FE15A5028EC0DF0DF5081
:1011E000766E0E0E76601DD0692A010E69165B6A56
:1011F0000F0E766E16D0010E5B6E13D08BA411D03D
:101200005C500FE167501EEC03F00BE16C5009E1FC
:101210006D6A796A030EF1EC02F0D1EC0CF0030E6A
:10122000776E000E8BB4010E5C6E8BB426D010501E
:1012300025EC03F0DF2A105025EC03F0BA0EDF6432
:101240003FD0105025EC03F0000EDF6E5D5038E00B
:101250005D6A060E7D6E6B6A16EC03F0060E026E7A
:10126000FA0E11EC03F0180E32EC03F0D1EC0CF096
:10127000030E7A6E3AEC03F023D0105025EC03F005
:10128000DF6A1ED067501EEC03F0D8A41200020ED5
:101290006D6E010E796E2AEC03F011EC03F0150E61
:1012A0000BD067501EEC03F0D8A41200010E6D6E37
:1012B000020E796E34EC08F032EC03F0D1EF0CF052
:1012C0007950E0E0010AEDE012000C6E03C008F076
:1012D00004C009F005C00AF006C00BF0040E05D0EA
:1012E000D8900B320A3209320832E82EF9D708C0FA
:1012F0000DF009C00EF00D500E10D8B4FF0C0C50BC
:10130000D8B4FF0C025001E1FF0C0F6A106A0F50B5
:101310001EEC03F01FE1A1920F503BD80CC0DFFF81
:101320000F503DD802C0DFFF0F5045D81DD8880FA1
:101330001BD88C0F29D80F5021D8010EDF6E0F500B
:1013400034D807C0DFFF0F5028EC0DF0DF6AA18210
:101350000F5012000F4A102A10BED9D71050D4E1F6
:10136000080E0F5CD4E3FF0CD96EDA6A0DC0DEFF05
:101370000EC0DDFF0F500A0DF35012000A0DF3509E
:101380008D0FD96EDA6A1200D96EDA6A010EDF6E3D
:10139000010C0A0DF3508A0FD96EDA6A12000A0D99
:1013A000F3508B0FD96EDA6A12000A0DF3508E0FCC
:1013B000D96EDA6A12000A0DF350860F12000C6A19
:1013C0000E6A308B000EDDEC12F0030E0A6E980EE2
:1013D000E82EFED70A2EFCD75AD80D0402E1309928
:1013E00001D03089000EDDEC12F0030E0A6E980E6B
:1013F000E82EFED70A2EFCD74AD80E6A0E50DDEC36
:1014000012F0030E0A6E980EE82EFED70A2EFCD7B5
:1014100044D803E00EC00CF004D00E2A0F0E0E6468
:10142000EDD70F0EDDEC12F0030E0A6E980EE82ECB
:10143000FED70A2EFCD72BD8100E0E6E0E04DDEC54
:1014400012F0030E0A6E980EE82EFED70A2EFCD775
:1014500024D815E00E500CC00AF00B6A0A26000EC4
:101460000B22FF0E0A24026EFF0E0B20036E056A8C
:10147000020E046E37EC0FF002500C6E03D00E0615
:101480000E50DCE10C50DDEC12F0309B1200000E2F
:101490000F0130BF010E0D6E1200000E0F0130BFA4
:1014A000010E0D1812006F5069E06E5067E0640E77
:1014B0006F6022D06E6020D00F016285CC6ACD6A49
:1014C0004CC0CAFF4BC0CBFF7B0EC96EA294A18457
:1014D0006287BB6ABA6A4AC0B9FF49C0B8FF7B0ECF
:1014E000BC6EA296A1868196BC849F929E828390B8
:1014F000C9849F909E8033D0630E6F6415D0640EB4
:101500006E6012D00F016287BB6ABA6A4AC0B9FF27
:1015100049C0B8FF7B0EBC6EA296A18683909F90B7
:101520009E808196BC8419D0630E6E6412D0640EC6
:101530006F600FD00F016285CC6ACD6A4CC0CAFFC4
:101540004BC0CBFF7B0EC96EA294A1848390C9844B
:1015500001D083909F909E8081969F929E820F01E2
:10156000628B3D0EA66EDC0EA56E470E136F500EFD
:10157000126FA6829C9A9B8AF28E500C9E909E922D
:101580008380818612008AA683A02BD081A629D0D1
:10159000635027E1625025E15ED8000E89B0010E4C
:1015A000751802E0010E516E000E89B2010E74181A
:1015B00002E0010E516E750404E189B002D0010E03
:1015C0005D6E740404E189B202D0010E5D6E000EFE
:1015D00089B0010E756E000E89B2010E746E5381D2
:1015E0005383515033E0516A6D6A16EC03F0030ED9
:1015F000F1EC02F0D1EC0CF0786A030E7A6E020E78
:10160000796E030E776E22D067501EEC03F0D8A4DB
:101610001200020E6D6E010E786E2AEC03F011ECD2
:1016200003F0150E0ED067501EEC03F0D8A4120084
:10163000010E6D6E030E786E026E320E11EC03F029
:10164000280E076E3CEC08F0D1EF0CF07850DCE08F
:10165000010AE9E012000F0153915393859085929E
:1016600012000C6A0E6A0F013389000EEFEC12F0C3
:10167000030E0A6E980EE82EFED70A2EFCD7000E37
:101680000F0178BD010E0D6E0D0402E1339701D0FC
:1016900033870E6A0E50EFEC12F0030E0A6E980EAE
:1016A000E82EFED70A2EFCD7000E0F0178BD010EE2
:1016B0000D1803E00EC00CF004D00E2A070E0E64C5
:1016C000E9D7070EEFEC12F0030E0A6E980EE82E23
:1016D000FED70A2EFCD7000E0F0178BD010E0D6E4D
:1016E000080E0E6E0E04EFEC12F0030E0A6E980E4A
:1016F000E82EFED70A2EFCD7000E0F0178BD010E92
:101700000D1815E00E500CC00AF00B6A0A26000EE8
:101710000B22FF0E0A24026EFF0E0B20036E056AD9
:10172000020E046E37EC0FF002500C6E03D00E0662
:101730000E50D8E10C50EFEC12F0339912000C6A05
:101740000E6A3289000EE6EC12F0030E0A6E980E55
:10175000E82EFED70A2EFCD7000E0F0177BD010E32
:101760000D6E0D0402E1329701D032870E6A0E50E1
:10177000E6EC12F0030E0A6E980EE82EFED70A2E43
:10178000FCD7000E0F0177BD010E0D1803E00EC04F
:101790000CF004D00E2A070E0E64E9D7070EE6EC13
:1017A00012F0030E0A6E980EE82EFED70A2EFCD712
:1017B000000E0F0177BD010E0D6E080E0E6E0E04A9
:1017C000E6EC12F0030E0A6E980EE82EFED70A2EF3
:1017D000FCD7000E0F0177BD010E0D1815E00E505D
:1017E0000CC00AF00B6A0A26000E0B22FF0E0A2418
:1017F000026EFF0E0B20036E056A020E046E37ECBC
:101800000FF002500C6E03D00E060E50D8E10C50B3
:10181000E6EC12F03299120010C014F0156A166A44
:101820000F34143601E315801450176E175001E180
:1018300053D013C014F0156A166A1234143601E33B
:10184000158014501C6E1C5001E146D01C507B0FBB
:10185000172610C01CF013501C1A800E1C160F8E79
:10186000128E000E1316186A196A1A6A070E1B6E7A
:101870000EB02BD8D89010320F320E32D8901136CD
:10188000123613361B2EF4D7090E1B6E0EB01DD860
:10189000D89010320F320E32D8901A3219321832D4
:1018A0001B2EF4D718C002F019C003F01AC004F0C0
:1018B00017C005F01CC006F077EC0EF002C00EF069
:1018C00003C00FF004C010F012001150182612507F
:1018D000192213501A2212000E6A0F6A106A12009F
:1018E000426E42041DE030D041C00BF0ACEF12F06C
:1018F00041C00BF0BAEF12F041C013F0F9EF0EF057
:1019000041C013F0B9EF11F041C00CF08AEF0DF0B7
:1019100041C00CF0E7EF0FF041C00EF0ACEF10F05B
:101920004050010AE1E0030AE3E0010AE5E0070AAA
:10193000E7E0010AD8B41200030AE6E0010AE8E091
:101940000F0AD8A41200E8D7020E421804E141C0E1
:1019500038F051EF01F0030E421804E141C010F0DD
:10196000C3EF0AF0040E42180AE1400404E141C04A
:1019700010F0E6EF08F041C002F009EF12F0050E9A
:10198000421804E141C019F0DEEF0DF0060E4218D6
:1019900004E141C019F091EF07F041C00FF01CEFD6
:1019A00010F00D6E03C009F004C00AF005C00BF082
:1019B00006C00CF0040E05D0D8900C320B320A325F
:1019C0000932E82EF9D709C00EF00AC00FF00E5008
:1019D0000F10D8B4FF0C0D50D8B4FF0C0250D8B47F
:1019E000FF0C070E086401D0FF0C08501EEC03F03A
:1019F000D8A4FF0CA1920850C9EC09F00DC0DFFF7C
:101A00000850CFEC09F002C0DFFF0850DBEC09F012
:101A100015D8880F13D88C0FC4EC09F00850BEEC11
:101A200009F0010EDF6E0850D5EC09F007C0DFFFAA
:101A300008500ED8DF6AA18208501200D96EDA6A07
:101A40000EC0DEFF0FC0DDFF08500A0DF35012007C
:101A50000A0DF3508F0FD96EDA6A12002BC02DF0E9
:101A60002E6A2F6A2A342D3601E32E802D50376ED0
:101A7000375005E1296A2A6A2B6A2C6A1200170E70
:101A80002D6E29C02EF02AC02FF02BC030F02D284B
:101A9000316E04D0D89030322F322E32312EFAD718
:101AA0002E50326E2A8E2B6A2950336E2A50346E95
:101AB0002B50356E366A8E0E375E37AE0CD03750EF
:101AC000800A8F0FD7E3D890363235323432333232
:101AD000373EF9D70CD0170E376407D0CBD7D89044
:101AE000333634363536363637063750F8E132502D
:101AF00008E0361E351E341E336C000E34223522AB
:101B0000362233C029F034C02AF035C02BF036C05D
:101B10002CF012000C50D96EDA6A090ED926DF506B
:101B200003E1000E80EC12F00C50D96EDA6A090E57
:101B3000D926140EDF600BD00C50D96EDA6A090E6C
:101B4000D926DFB004D0FA0E0101006F2BD00C5063
:101B5000D96EDA6A090ED926150EDF6007D00C504F
:101B6000D96EDA6A090ED926DFB008D00C50D96ECA
:101B7000DA6A090ED926170EDE1809E10101006B99
:101B8000106B206B306B406B506B606B11D00C5046
:101B9000D96EDA6A090ED926140EDE1809E10101A0
:101BA000006BFA0E106F206F306F406F506F606FD8
:101BB000000E096E010E0A6E98EF11F08AA683A03E
:101BC000120081B688B812006350D8A41200625087
:101BD000D8A41200BAEC0EF00FC04FF010C050F0B5
:101BE00070504F5C7150505804E24FC070F050C0BC
:101BF00071F04F0E705C010E715801E22DD0540E41
:101C0000705C010E715805E26A6A010E7C6E616AB1
:101C100012005E0E705C010E715803E26A6A020ED9
:101C2000F5D7680E705C010E715803E26A6A030E04
:101C3000EDD7720E705C010E715803E26A6A040EF1
:101C4000E5D77C0E705C010E715803E26A6A050EDE
:101C5000DDD76A6A060EDAD7010E6A6E7C6E616E97
:101C6000010C806A080E816E010E826E836EEF0E8B
:101C7000986E846885688668FB0E876EDF0E8C6EB2
:101C800031D8946A956A966A976A0F01546B536BC0
:101C9000526B0D6BCF9062934D9F639D729B749DB1
:101CA000739D789F779FA690629B100E13D86089D2
:101CB0005F815F835E875D859F9A9F9C9F9EA29EAA
:101CC0009E8A9E8C9E8EA18EF28E070E656F0300FB
:101CD00000F0070C906E030E916E080E926E040ECB
:101CE000936E040C8D68F70E8E6E8F68120005508F
:101CF00004E002500310041006E1026A036A046A59
:101D00001200052A32D8076A086AFE0E041428D881
:101D100007E0F7D7052A022A000E0322042225D85D
:101D2000076A086A04501CD806E0F4D70506D89064
:101D300002360336043603BE03D0020E0560F6D722
:101D400005A0039ED890053205500412065001E00C
:101D5000048E02C002F003C003F004C004F01200BD
:101D6000096E0750081009101200D890043203328F
:101D7000023212009C0E156E3F0E166E060E176E86
:101D8000186A0F01628B3D0EA66EDC0EA56E136BFA
:101D9000126B9C9A9B9A0D0EE82EFED700F0A6823D
:101DA000A6B2FED79C9AA8500F0B126E116AA750CC
:101DB0001110136E1250146E15C002F016C003F00D
:101DC00017C004F018C005F013C006F014C007F0E7
:101DD000086A096A73EC0FF002C015F003C016F030
:101DE00004C017F005C018F015C00FF016C010F0B1
:101DF00012006D5014E11350D96EDA6A090ED9261B
:101E0000DF5005E1010E7B6E000E80EC12F01350E6
:101E1000D96EDA6A090ED926DF50686E15D01350D4
:101E2000D96EDA6A090ED926DF50146E14502708CD
:101E3000686E685004E18AB602D088A802D06C505F
:101E400003E0000ED8EF11F07CC002F06BC003F08D
:101E50006AC004F069C005F06DC006F07D5052EC18
:101E600003F0000E096E010E0A6E98EF11F0076A7A
:101E700005AE06D0046C051ED8B0052A010E076E0B
:101E800003AE06D0026C031ED8B0032A010E071A57
:101E9000086A096A045005101BE0010E066E04D0A2
:101EA000D89004360536062A05AEFAD7D8900836FB
:101EB00009360450025C0550035805E30450025EE5
:101EC0000550035A0880D89005320432062EEED70A
:101ED000075004E0086C091ED8B0092A08C002F0B7
:101EE00009C003F012000A6A0B6A0C6A0D6A0650F8
:101EF00007100810091029E0010E0E6E06D0D890C8
:101F000006360736083609360E2A09AEF8D7D890B5
:101F10000A360B360C360D360650025C0750035855
:101F2000085004580950055809E30650025E07504E
:101F3000035A0850045A0950055A0A80D8900932A9
:101F40000832073206320E2EE2D70AC002F00BC06A
:101F500003F00CC004F00DC005F01200100EF66E78
:101F6000260EF76E000EF86E00EED6F010EE0CF0B6
:101F70000900F5CFEEFFE550E150FAE1020EF66EF2
:101F8000260EF76E000EF86E00EE70F010EE0EF0FA
:101F90000900F5CFEEFFE550E150FAE101EE00F067
:101FA000800EEE6AE806FDE100EE80F0560EEE6A65
:101FB000E806FDE100EE45F02B0EEE6AE806FDE1D5
:101FC0007E907E92000EF86E000115EF05F0FA0E7D
:101FD00080EC12F00101006B06D0206B306B406B7F
:101FE000506B606B0CD07D50010AF7E0030AF6E0FD
:101FF000010AF5E0070AF4E0010AF3E0030A016BC5
:10200000695005E16E6B706B716B7E6B06D00E6B69
:102010001E6B2E6B3E6B4E6B5E6B0C50D96EDA6A8C
:10202000050ED926070EDE18D8A41200000E096E80
:10203000010E0A6E98EF11F067500A0DF3508C0FE5
:10204000D96EDA6ADF5024E16C5022E10F50D96E6C
:10205000DA6A090ED926DF2A0F50D96EDA6A090E1C
:10206000D926130EDF64130C0F50D96EDA6A090EED
:10207000D926DF6A31EC0EF026EC11F03FEC12F0BD
:1020800071EC12F0D8EC10F09EEC12F0F8EF12F0B8
:102090000F50D96EDA6A090ED926DF6A000C045097
:1020A000561804E0010E736E04C056F0735020E021
:1020B000586A4D6A4E6A02C005F003C006F0D89017
:1020C00006320532D89006320532D89006320532F3
:1020D00005C084F006C085F00F016281D56AF90E53
:1020E000D66E070ED76EA290A180F28E736AFF0C97
:1020F000585004E0586A010E736E010C000C6F50CA
:10210000D8B412006E50D8B41200640E6F6004D0C0
:102110006E6002D018D80ED0630E6F6404D0640EC7
:102120006E6001D007D0630E6E64630C640E6F6046
:10213000640C09D06E50050DFF0EF324496EFF0E9E
:10214000F4204A6E12006F50050DFF0EF3244B6E03
:10215000FF0EF4204C6E12000E50D96EDA6A090E92
:10216000D926DFA022D00EC00CF0E7EC0FF00BD088
:102170000101216B0101316B0101416B0101516BC7
:102180000101616B0CD07C50010AF2E0030AF2E01D
:10219000010AF2E0070AF2E0010AF2E0030A000E87
:1021A000096E010E0A6E98EF11F0000ED8EF11F0D3
:1021B0000F01628F78997887788578937881788B0A
:1021C00077897787779577817783779B769F769DD9
:1021D000769B7699788F778F850EE82EFED700F064
:1021E0009F909E909F929E9231EC0BF09FEC0BF093
:1021F000766B7D69850EE82EFED700F01200056E25
:10220000066A06C002F0800E036E046A022A03D03A
:10221000043404320332022EFBD70350051402E0CB
:10222000828401D0829400D000D000D000D082827D
:1022300000D000D000D000D0829200D000D000D0DA
:1022400000D0062A070E0664DCD7070C700E0F01BB
:10225000646F0F0E636F806A080E816E070E826EC8
:10226000010E836EEF0E986E300E6AEC0EF08C68E5
:1022700072EC0EF0DF0E846EFC0E856E8668FB0E2F
:10228000876E946A956A060E966E976A546B030E73
:10229000536F526B0D6B12000A6A0B6A0C6A0D6A5F
:1022A00002A008D006500A2607500B2208500C2224
:1022B00009500D22D8900636073608360936D890D0
:1022C00005320432033202320250031004100510AA
:1022D000E7E10AC002F00BC003F00CC004F00DC02F
:1022E00005F012008E0E126E06D0D8900D320C3210
:1022F0000B320A32122A0E6A0F6A106A0D50116EE2
:102300000E500F1010101110F0E10AC002F00BC0B7
:1023100003F00CC004F012C005F0000E066E77EC5E
:102320000EF002C00AF003C00BF004C00CF0120063
:10233000000ED2EC12F0F4EC11F0780EFFEC10F07D
:1023400061EC12F0000EFFEC10F061EC12F00B6A81
:102350000B500924D96E000E0A20DA6EDF50FFEC14
:1023600010F061EC12F00B2A7F0E0B64F1D750EFE6
:1023700012F01350D96EDA6A090ED926DE0401E193
:102380001200010E7B6E270E686E7CC002F06BC0DF
:1023900003F06AC004F069C005F06DC006F07D501E
:1023A00052EC03F0000E096E010E0A6E98EF11F068
:1023B000096E000ED2EC12F0F4EC11F0780EFFEC86
:1023C00010F061EC12F0000EFFEC10F061EC12F076
:1023D0000A6A0950FFEC10F061EC12F00A2A7F0E35
:1023E0000A64F7D750EF12F0828400D000D000D0FA
:1023F00000D0828200D000D000D000D0829400D0E3
:1024000000D000D000D0829200D000D000D000D008
:1024100012005B500CE0025025EC03F0DF2A025062
:1024200025EC03F00D0EDF640D0C5B6A1200025008
:1024300025EC03F0DF6A000C0D6E0D50026E036A8E
:10244000046A8E0E056E000E066E77EC0EF002C06A
:102450000AF003C00BF004C00CF01200026A025034
:102460000A0DF3508C0FD96EDA6ADF6A0250BEECA7
:1024700009F0DF6A022A070E0264F1D7070CA00EEA
:10248000726F729D309DDFEC09F0850EE82EFED74D
:1024900000F00F01728B850EE82EFED700F01200BF
:1024A000829400D000D000D000D0829200D000D022
:1024B00000D000D0828200D000D000D000D0828432
:1024C0001200828400D000D000D000D0828200D0E0
:1024D00000D000D000D0829200D000D000D000D038
:1024E00012000F0175937591370E746F748D759787
:1024F0007595736F738D850EE82EFED700F0120070
:10250000026E036A000E0324D96EDA6A010EDA2223
:1025100002C0DFFF032A7F0E0364F4D77F0C076E2F
:10252000F4EC11F0780EFFEC10F061EC12F00750B3
:10253000FFEC10F061EC12F050EF12F00F0162832B
:102540006283E00ED16EC00ED06E300ECF6EA292BE
:10255000A182F28ECF80300C0B50D96EDA6A090E50
:10256000D926020EDE1803E1000ED8EF11F0FF0E9F
:10257000D8EF11F00B50D96EDA6A090ED926DFA018
:1025800003D0000ED8EF11F0FA0ED8EF11F08284CC
:1025900000D000D000D000D0828200D000D000D087
:1025A00000D01200086E08380F0BC0098FEC12F033
:1025B00008500F0BE0098FEF12F0026E0F0130513F
:1025C000F00B036E03500210306F1200026E0F0109
:1025D0003251F80B036E03500210326F1200026E7C
:1025E0000F013351F80B036E03500210336F1200CA
:1025F000C7EC12F08290640E8FEC12F0860E8FEF13
:1026000012F09A0101010101140302020301010603
:0C2610003C0F00003C0F0000140500000F
:020000040030CA
:08000000F2FF010000FFC1FF47
:00000001FF
